{
  "contractName": "BonusProgram",
  "abi": [
    {
      "constant": true,
      "inputs": [],
      "name": "tokensBoughtInBonusProgram",
      "outputs": [
        {
          "name": "",
          "type": "uint256"
        }
      ],
      "payable": false,
      "stateMutability": "view",
      "type": "function"
    },
    {
      "constant": true,
      "inputs": [],
      "name": "initialBonuslistTokens",
      "outputs": [
        {
          "name": "",
          "type": "uint256"
        }
      ],
      "payable": false,
      "stateMutability": "view",
      "type": "function"
    },
    {
      "inputs": [
        {
          "name": "_initialBonuslistTokens",
          "type": "uint256"
        }
      ],
      "payable": false,
      "stateMutability": "nonpayable",
      "type": "constructor"
    }
  ],
  "bytecode": "0x6080604052600060015534801561001557600080fd5b506040516020806100f3833981016040525160005560bb806100386000396000f30060806040526004361060485763ffffffff7c0100000000000000000000000000000000000000000000000000000000600035041663a043bb168114604d578063e3aa3c6e146071575b600080fd5b348015605857600080fd5b50605f6083565b60408051918252519081900360200190f35b348015607c57600080fd5b50605f6089565b60015481565b600054815600a165627a7a723058200ccce13e5e55f073bb0b9de290d88e5d44649e390210e0b14e42db7631852ae10029",
  "source": "pragma solidity ^0.4.23;\n\nimport \"zeppelin-solidity/contracts/math/SafeMath.sol\";\nimport \"zeppelin-solidity/contracts/math/Math.sol\";\n\ncontract BonusProgram {\n  using SafeMath for uint256;\n\n  // Amount of decimals specified for the ERC20 token\n  uint constant DECIMALS = 18;\n\n  // Initial amount of bonus program tokens\n  uint256 public initialBonuslistTokens;\n  // Tokens that have been bought in bonus program\n  uint256 public tokensBoughtInBonusProgram = 0;\n\n  constructor(uint256 _initialBonuslistTokens) public {\n    initialBonuslistTokens = _initialBonuslistTokens;\n  }\n\n  /**\n   * @dev Calculates the amount of bonus tokens a buyer gets, based on how much the buyer bought and in which bonus threshold the purchase falls.\n   *      Note that this function does not modify any variables besides the _totalTokensSold, the responsibility for that lies with the caller.\n   * @param _tokensBought Number of tokens a buyer bought\n   * @param _totalTokensSold Number of tokens sold prior to the buyer buying their tokens\n   * @return The amount of tokens the buyer should receive as bonus\n   */\n  function _calculateBonus(uint256 _tokensBought, uint256 _totalTokensSold) internal pure returns (uint) {\n    uint _bonusTokens = 0;\n    // This checks if the bonus cap has been reached.\n    if (_totalTokensSold > 150 * 10**5 * 10**DECIMALS) {\n      return _bonusTokens;\n    }\n    // Bonus tranches: [ 15%, 10%, 5%, 2.5% ]\n    uint8[4] memory _bonusPattern = [ 150, 100, 50, 25 ];\n    // Bonus tranche thresholds in millions\n    uint256[5] memory _thresholds = [ 0, 25 * 10**5 * 10**DECIMALS, 50 * 10**5 * 10**DECIMALS, 100 * 10**5 * 10**DECIMALS, 150 * 10**5 * 10**DECIMALS ];\n\n    for(uint8 i = 0; _tokensBought > 0 && i < _bonusPattern.length; ++i) {\n      uint _min = _thresholds[i];\n      uint _max = _thresholds[i+1];\n\n      if(_totalTokensSold >= _min && _totalTokensSold < _max) {\n        uint _bonusedPart = Math.min256(_tokensBought, _max - _totalTokensSold);\n        _bonusTokens = _bonusTokens.add(_bonusedPart * _bonusPattern[i] / 1000);\n        _tokensBought = _tokensBought.sub(_bonusedPart);\n        _totalTokensSold  = _totalTokensSold.add(_bonusedPart);\n      }\n    }\n    return _bonusTokens;\n  }\n}\n",
  "sourcePath": "/home/shinxs/Projects/fida/contracts/BonusProgram.sol",
  "compiler": {
    "name": "solc",
    "version": "0.4.23+commit.124ca40d.Emscripten.clang"
  },
  "schemaVersion": "2.0.0",
  "updatedAt": "2018-05-23T08:16:07.889Z"
}