{
  "contractName": "BountyProgram",
  "abi": [
    {
      "constant": true,
      "inputs": [],
      "name": "bountyAddress",
      "outputs": [
        {
          "name": "",
          "type": "address"
        }
      ],
      "payable": false,
      "stateMutability": "view",
      "type": "function"
    },
    {
      "inputs": [
        {
          "name": "_contractName",
          "type": "string"
        },
        {
          "name": "_bountyAddress",
          "type": "address"
        },
        {
          "name": "_tokenAddress",
          "type": "address"
        },
        {
          "name": "_contractManager",
          "type": "address"
        }
      ],
      "payable": false,
      "stateMutability": "nonpayable",
      "type": "constructor"
    },
    {
      "anonymous": false,
      "inputs": [
        {
          "indexed": true,
          "name": "_oldAddress",
          "type": "address"
        },
        {
          "indexed": true,
          "name": "_newAddress",
          "type": "address"
        }
      ],
      "name": "BountyWalletAddressChanged",
      "type": "event"
    },
    {
      "anonymous": false,
      "inputs": [
        {
          "indexed": true,
          "name": "_bountyReceiver",
          "type": "address"
        },
        {
          "indexed": false,
          "name": "_bountyTokens",
          "type": "uint256"
        }
      ],
      "name": "BountySend",
      "type": "event"
    },
    {
      "constant": false,
      "inputs": [
        {
          "name": "_walletAddress",
          "type": "address"
        }
      ],
      "name": "setBountyWalletAddress",
      "outputs": [],
      "payable": false,
      "stateMutability": "nonpayable",
      "type": "function"
    },
    {
      "constant": false,
      "inputs": [
        {
          "name": "_tokens",
          "type": "uint256"
        },
        {
          "name": "_address",
          "type": "address"
        }
      ],
      "name": "giveBounty",
      "outputs": [],
      "payable": false,
      "stateMutability": "nonpayable",
      "type": "function"
    }
  ],
  "bytecode": "0x60806040526934f086f3b33b684000006001556934f086f3b33b6840000060025534801561002c57600080fd5b506040516104e13803806104e183398101604090815281516020808401519284015160608501519290940180519094929161006c916003918701906100b0565b5060008054600160a060020a03948516600160a060020a0319918216179091556005805493851693821693909317909255600480549190931691161790555061014b565b828054600181600116156101000203166002900490600052602060002090601f016020900481019282601f106100f157805160ff191683800117855561011e565b8280016001018555821561011e579182015b8281111561011e578251825591602001919060010190610103565b5061012a92915061012e565b5090565b61014891905b8082111561012a5760008155600101610134565b90565b6103878061015a6000396000f3006080604052600436106100565763ffffffff7c010000000000000000000000000000000000000000000000000000000060003504166337ae67f5811461005b578063c516358f14610081578063f268225c146100b2575b600080fd5b34801561006757600080fd5b5061007f600435600160a060020a03602435166100d3565b005b34801561008d57600080fd5b5061009661018e565b60408051600160a060020a039092168252519081900360200190f35b3480156100be57600080fd5b5061007f600160a060020a036004351661019d565b60005433600160a060020a039081169116146100ee57600080fd5b600254610101908363ffffffff61034916565b600255600554604080517ff3cd543f000000000000000000000000000000000000000000000000000000008152600160a060020a038481166004830152602482018690529151919092169163f3cd543f91604480830192600092919082900301818387803b15801561017257600080fd5b505af1158015610186573d6000803e3d6000fd5b505050505050565b600054600160a060020a031681565b60048054604080517f8645770200000000000000000000000000000000000000000000000000000000815233600160a060020a0381811660248401529482019283526003805460026000196001831615610100020190911604604484018190526000969095169463864577029491938291606490910190859080156102635780601f1061023857610100808354040283529160200191610263565b820191906000526020600020905b81548152906001019060200180831161024657829003601f168201915b50509350505050602060405180830381600087803b15801561028457600080fd5b505af1158015610298573d6000803e3d6000fd5b505050506040513d60208110156102ae57600080fd5b505115156102bb57600080fd5b600160a060020a03821615156102d057600080fd5b600054600160a060020a03838116911614156102eb57600080fd5b5060008054600160a060020a0383811673ffffffffffffffffffffffffffffffffffffffff19831681178455604051919092169283917fc857c2d0b05db739b2739397411afc2ce5fd0b5f413970588f5309ad4b2318919190a35050565b60008282111561035557fe5b509003905600a165627a7a72305820854c36aefc873728e4bc3d1dbbeb56cf3b737e4b616733dfaa12d94ab90011620029",
  "source": "pragma solidity ^0.4.23;\n\nimport \"zeppelin-solidity/contracts/math/SafeMath.sol\";\nimport \"./interfaces/ContractManagerInterface.sol\";\nimport \"./interfaces/MintableTokenInterface.sol\";\n\ncontract BountyProgram {\n  using SafeMath for uint256;\n\n  // Wownity bounty address\n  address public bountyAddress;\n\n  // Amount of total tokens that were available\n  uint256 TOKENS_IN_BOUNTY = 25 * 10**4 * 10**18;\n  // Amount of tokens that are still available\n  uint256 tokenAvailable = 25 * 10**4 * 10**18;\n\n  // Name of this contract\n  string private contractName;  \n  // Contract Manager\n  ContractManagerInterface private contractManager;\n  // The fida mintable token\n  MintableTokenInterface private mintableFida;\n\n  /**\n   * @notice Triggered when bounty wallet address is changed\n   * @param _oldAddress Address where the bounty wallet used to be\n   * @param _newAddress Address where the new bounty wallet is\n   */\n  event BountyWalletAddressChanged(address indexed _oldAddress, address indexed _newAddress);\n\n  /**\n   * @notice Triggered when a bounty is send\n   * @param _bountyReceiver Address where the bounty is send to\n   * @param _bountyTokens Amount of tokens that have been send\n   */\n  event BountySend(address indexed _bountyReceiver, uint256 _bountyTokens);\n\n  /**\n   * @notice Contructor for creating the fida bounty program\n   * @param _contractName Name of this contract in the contract manager\n   * @param _bountyAddress Address of where bounty tokens will be send from\n   * @param _tokenAddress Address where ERC20 token is located\n   * @param _contractManager Address where the contract manager is deployed\n   */\n  constructor(string _contractName, address _bountyAddress, address _tokenAddress, address _contractManager) public {\n    contractName = _contractName;\n    bountyAddress = _bountyAddress;\n    mintableFida = MintableTokenInterface(_tokenAddress);\n    contractManager = ContractManagerInterface(_contractManager);\n  }\n\n  /**\n   * @notice Change the address to where the bounty will be send when sale starts\n   * @param _walletAddress Address of the wallet\n   */\n  function setBountyWalletAddress(address _walletAddress) external {\n    require(contractManager.authorize(contractName, msg.sender));\n    require(_walletAddress != address(0));\n    require(_walletAddress != bountyAddress);\n\n    address oldAddress = bountyAddress;\n    bountyAddress = _walletAddress;\n\n    emit BountyWalletAddressChanged(oldAddress, _walletAddress);\n  }\n\n  /**\n   * @notice Give out a bounty\n   * @param _tokens Amount of tokens to be given out\n   * @param _address Address whom will receive the bounty\n   */\n  function giveBounty(uint256 _tokens, address _address) external {\n    require(msg.sender == bountyAddress);\n\n    tokenAvailable = tokenAvailable.sub(_tokens);\n\n    mintableFida.sendBoughtTokens(_address, _tokens);\n  }\n}",
  "sourcePath": "/home/shinxs/Projects/fida/contracts/BountyProgram.sol",
  "compiler": {
    "name": "solc",
    "version": "0.4.23+commit.124ca40d.Emscripten.clang"
  },
  "schemaVersion": "2.0.0",
  "updatedAt": "2018-05-23T08:16:07.887Z"
}