{
  "contractName": "BurnableToken",
  "abi": [
    {
      "constant": false,
      "inputs": [
        {
          "name": "_spender",
          "type": "address"
        },
        {
          "name": "_value",
          "type": "uint256"
        }
      ],
      "name": "approve",
      "outputs": [
        {
          "name": "",
          "type": "bool"
        }
      ],
      "payable": false,
      "stateMutability": "nonpayable",
      "type": "function"
    },
    {
      "constant": true,
      "inputs": [],
      "name": "totalSupply",
      "outputs": [
        {
          "name": "",
          "type": "uint256"
        }
      ],
      "payable": false,
      "stateMutability": "view",
      "type": "function"
    },
    {
      "constant": false,
      "inputs": [
        {
          "name": "_from",
          "type": "address"
        },
        {
          "name": "_to",
          "type": "address"
        },
        {
          "name": "_value",
          "type": "uint256"
        }
      ],
      "name": "transferFrom",
      "outputs": [
        {
          "name": "",
          "type": "bool"
        }
      ],
      "payable": false,
      "stateMutability": "nonpayable",
      "type": "function"
    },
    {
      "constant": true,
      "inputs": [],
      "name": "depositAddress",
      "outputs": [
        {
          "name": "",
          "type": "address"
        }
      ],
      "payable": false,
      "stateMutability": "view",
      "type": "function"
    },
    {
      "constant": false,
      "inputs": [
        {
          "name": "_spender",
          "type": "address"
        },
        {
          "name": "_subtractedValue",
          "type": "uint256"
        }
      ],
      "name": "decreaseApproval",
      "outputs": [
        {
          "name": "",
          "type": "bool"
        }
      ],
      "payable": false,
      "stateMutability": "nonpayable",
      "type": "function"
    },
    {
      "constant": false,
      "inputs": [
        {
          "name": "_depositAddress",
          "type": "address"
        }
      ],
      "name": "changeDepositAddress",
      "outputs": [],
      "payable": false,
      "stateMutability": "nonpayable",
      "type": "function"
    },
    {
      "constant": true,
      "inputs": [
        {
          "name": "_owner",
          "type": "address"
        }
      ],
      "name": "balanceOf",
      "outputs": [
        {
          "name": "balance",
          "type": "uint256"
        }
      ],
      "payable": false,
      "stateMutability": "view",
      "type": "function"
    },
    {
      "constant": true,
      "inputs": [],
      "name": "contractName",
      "outputs": [
        {
          "name": "",
          "type": "string"
        }
      ],
      "payable": false,
      "stateMutability": "view",
      "type": "function"
    },
    {
      "constant": false,
      "inputs": [
        {
          "name": "_tokens",
          "type": "uint256"
        }
      ],
      "name": "mintTokens",
      "outputs": [],
      "payable": false,
      "stateMutability": "nonpayable",
      "type": "function"
    },
    {
      "constant": false,
      "inputs": [
        {
          "name": "_to",
          "type": "address"
        },
        {
          "name": "_value",
          "type": "uint256"
        }
      ],
      "name": "transfer",
      "outputs": [
        {
          "name": "",
          "type": "bool"
        }
      ],
      "payable": false,
      "stateMutability": "nonpayable",
      "type": "function"
    },
    {
      "constant": true,
      "inputs": [],
      "name": "locked",
      "outputs": [
        {
          "name": "",
          "type": "bool"
        }
      ],
      "payable": false,
      "stateMutability": "view",
      "type": "function"
    },
    {
      "constant": false,
      "inputs": [
        {
          "name": "_spender",
          "type": "address"
        },
        {
          "name": "_addedValue",
          "type": "uint256"
        }
      ],
      "name": "increaseApproval",
      "outputs": [
        {
          "name": "",
          "type": "bool"
        }
      ],
      "payable": false,
      "stateMutability": "nonpayable",
      "type": "function"
    },
    {
      "constant": true,
      "inputs": [
        {
          "name": "_owner",
          "type": "address"
        },
        {
          "name": "_spender",
          "type": "address"
        }
      ],
      "name": "allowance",
      "outputs": [
        {
          "name": "",
          "type": "uint256"
        }
      ],
      "payable": false,
      "stateMutability": "view",
      "type": "function"
    },
    {
      "constant": false,
      "inputs": [
        {
          "name": "_beneficiary",
          "type": "address"
        },
        {
          "name": "_tokens",
          "type": "uint256"
        }
      ],
      "name": "sendBoughtTokens",
      "outputs": [],
      "payable": false,
      "stateMutability": "nonpayable",
      "type": "function"
    },
    {
      "constant": false,
      "inputs": [],
      "name": "unlockTokens",
      "outputs": [],
      "payable": false,
      "stateMutability": "nonpayable",
      "type": "function"
    },
    {
      "inputs": [
        {
          "name": "_depositAddress",
          "type": "address"
        },
        {
          "name": "_contractName",
          "type": "string"
        },
        {
          "name": "_contractManager",
          "type": "address"
        }
      ],
      "payable": false,
      "stateMutability": "nonpayable",
      "type": "constructor"
    },
    {
      "anonymous": false,
      "inputs": [],
      "name": "TokensUnlocked",
      "type": "event"
    },
    {
      "anonymous": false,
      "inputs": [
        {
          "indexed": true,
          "name": "owner",
          "type": "address"
        },
        {
          "indexed": true,
          "name": "spender",
          "type": "address"
        },
        {
          "indexed": false,
          "name": "value",
          "type": "uint256"
        }
      ],
      "name": "Approval",
      "type": "event"
    },
    {
      "anonymous": false,
      "inputs": [
        {
          "indexed": true,
          "name": "from",
          "type": "address"
        },
        {
          "indexed": true,
          "name": "to",
          "type": "address"
        },
        {
          "indexed": false,
          "name": "value",
          "type": "uint256"
        }
      ],
      "name": "Transfer",
      "type": "event"
    },
    {
      "anonymous": false,
      "inputs": [
        {
          "indexed": true,
          "name": "_from",
          "type": "address"
        },
        {
          "indexed": true,
          "name": "_to",
          "type": "address"
        },
        {
          "indexed": false,
          "name": "_tokens",
          "type": "uint256"
        }
      ],
      "name": "TokensMinted",
      "type": "event"
    },
    {
      "anonymous": false,
      "inputs": [
        {
          "indexed": true,
          "name": "_old",
          "type": "address"
        },
        {
          "indexed": true,
          "name": "_new",
          "type": "address"
        }
      ],
      "name": "DepositAddressChanged",
      "type": "event"
    },
    {
      "anonymous": false,
      "inputs": [
        {
          "indexed": true,
          "name": "_triggerer",
          "type": "address"
        },
        {
          "indexed": true,
          "name": "_from",
          "type": "address"
        },
        {
          "indexed": false,
          "name": "_tokens",
          "type": "uint256"
        }
      ],
      "name": "TokensBurned",
      "type": "event"
    },
    {
      "constant": false,
      "inputs": [
        {
          "name": "_tokens",
          "type": "uint256"
        }
      ],
      "name": "burnTokens",
      "outputs": [],
      "payable": false,
      "stateMutability": "nonpayable",
      "type": "function"
    }
  ],
  "bytecode": "0x60806040526003805460ff191660011790553480156200001e57600080fd5b506040516200130a3803806200130a8339810160409081528151602080840151928401516003805461010060a860020a031916610100600160a060020a0386160217905592909301805191939092918491849184916200008491600491850190620000b1565b5060058054600160a060020a031916600160a060020a039290921691909117905550620001569350505050565b828054600181600116156101000203166002900490600052602060002090601f016020900481019282601f10620000f457805160ff191683800117855562000124565b8280016001018555821562000124579182015b828111156200012457825182559160200191906001019062000107565b506200013292915062000136565b5090565b6200015391905b808211156200013257600081556001016200013d565b90565b6111a480620001666000396000f3006080604052600436106100e55763ffffffff7c0100000000000000000000000000000000000000000000000000000000600035041663095ea7b381146100ea57806318160ddd1461012257806323b872dd1461014957806328f833b71461017357806366188463146101a45780636d1b229d146101c85780636d58c88f146101e257806370a082311461020357806375d0c0dc1461022457806397304ced146102ae578063a9059cbb146102c6578063cf309012146102ea578063d73dd623146102ff578063dd62ed3e14610323578063f3cd543f1461034a578063f968f4931461036e575b600080fd5b3480156100f657600080fd5b5061010e600160a060020a0360043516602435610383565b604080519115158252519081900360200190f35b34801561012e57600080fd5b506101376103fc565b60408051918252519081900360200190f35b34801561015557600080fd5b5061010e600160a060020a0360043581169060243516604435610402565b34801561017f57600080fd5b50610188610593565b60408051600160a060020a039092168252519081900360200190f35b3480156101b057600080fd5b5061010e600160a060020a03600435166024356105a7565b3480156101d457600080fd5b506101e06004356106b6565b005b3480156101ee57600080fd5b506101e0600160a060020a03600435166108c7565b34801561020f57600080fd5b50610137600160a060020a0360043516610a6e565b34801561023057600080fd5b50610239610a89565b6040805160208082528351818301528351919283929083019185019080838360005b8381101561027357818101518382015260200161025b565b50505050905090810190601f1680156102a05780820380516001836020036101000a031916815260200191505b509250505060405180910390f35b3480156102ba57600080fd5b506101e0600435610b17565b3480156102d257600080fd5b5061010e600160a060020a0360043516602435610ce3565b3480156102f657600080fd5b5061010e610d01565b34801561030b57600080fd5b5061010e600160a060020a0360043516602435610d0a565b34801561032f57600080fd5b50610137600160a060020a0360043581169060243516610dbd565b34801561035657600080fd5b506101e0600160a060020a0360043516602435610dfc565b34801561037a57600080fd5b506101e0610ffc565b60035460009060ff161561039657600080fd5b600160a060020a03338116600081815260016020908152604080832094881680845294825291829020869055815186815291517f8c5be1e5ebec7d5bd14f71427d1e84f3dd0314c0f7b2291e5b200ac8c7c3b9259281900390910190a350600192915050565b60025490565b60035460009060ff161561041557600080fd5b600160a060020a038316151561042a57600080fd5b600160a060020a03841660009081526020819052604090205482111561044f57600080fd5b600160a060020a038085166000908152600160209081526040808320339094168352929052205482111561048257600080fd5b600160a060020a0384166000908152602081905260409020546104ab908363ffffffff61104216565b600160a060020a0380861660009081526020819052604080822093909355908516815220546104e0908363ffffffff61105416565b600160a060020a0380851660009081526020818152604080832094909455878316825260018152838220339093168252919091522054610526908363ffffffff61104216565b600160a060020a038086166000818152600160209081526040808320338616845282529182902094909455805186815290519287169391927fddf252ad1be2c89b69c2b068fc378daa952ba7f163c4a11628f55a4df523b3ef929181900390910190a35060019392505050565b6003546101009004600160a060020a031681565b600354600090819060ff16156105bc57600080fd5b50600160a060020a033381166000908152600160209081526040808320938716835292905220548083111561061857600160a060020a03338116600090815260016020908152604080832093881683529290529081205561064f565b610628818463ffffffff61104216565b600160a060020a033381166000908152600160209081526040808320938916835292905220555b600160a060020a0333811660008181526001602090815260408083209489168084529482529182902054825190815291517f8c5be1e5ebec7d5bd14f71427d1e84f3dd0314c0f7b2291e5b200ac8c7c3b9259281900390910190a3600191505b5092915050565b60035460ff16156106c657600080fd5b6005546040805160e160020a634322bb8102815233600160a060020a038181166024840152600483810194855280546002600019600183161561010002019091160460448501819052919095169463864577029490939091829160640190859080156107735780601f1061074857610100808354040283529160200191610773565b820191906000526020600020905b81548152906001019060200180831161075657829003601f168201915b50509350505050602060405180830381600087803b15801561079457600080fd5b505af11580156107a8573d6000803e3d6000fd5b505050506040513d60208110156107be57600080fd5b505115156107cb57600080fd5b6003546101009004600160a060020a031615156107e757600080fd5b8015156107f357600080fd5b6003546101009004600160a060020a031660009081526020819052604090205481111561081f57600080fd5b6003546101009004600160a060020a03166000908152602081905260409020546108499082611042565b6003546101009004600160a060020a03166000908152602081905260409020556002546108769082611042565b600255600354604080518381529051600160a060020a036101009093048316923316917f857ac1c9e97cc66ecae5f524c9c611463ae748b85af3ca454a5ec4d7d341924d919081900360200190a350565b6005546040805160e160020a634322bb81028152600160a060020a033381811660248401526004808401948552805460026101006001831615026000190190911604604485018190526000969390931694638645770294919390918291606490910190859080156109795780601f1061094e57610100808354040283529160200191610979565b820191906000526020600020905b81548152906001019060200180831161095c57829003601f168201915b50509350505050602060405180830381600087803b15801561099a57600080fd5b505af11580156109ae573d6000803e3d6000fd5b505050506040513d60208110156109c457600080fd5b505115156109d157600080fd5b600160a060020a03821615156109e657600080fd5b600354600160a060020a03838116610100909204161415610a0657600080fd5b5060038054600160a060020a0383811661010081810274ffffffffffffffffffffffffffffffffffffffff001985161790945560405193909204169182907fa2fa2b3cf1d10ada9e20317a6f64da336f58a46a30201f975780faf6f0e0aa4490600090a35050565b600160a060020a031660009081526020819052604090205490565b6004805460408051602060026001851615610100026000190190941693909304601f81018490048402820184019092528181529291830182828015610b0f5780601f10610ae457610100808354040283529160200191610b0f565b820191906000526020600020905b815481529060010190602001808311610af257829003601f168201915b505050505081565b60035460ff1615610b2757600080fd5b6005546040805160e160020a634322bb8102815233600160a060020a03818116602484015260048381019485528054600260001960018316156101000201909116046044850181905291909516946386457702949093909182916064019085908015610bd45780601f10610ba957610100808354040283529160200191610bd4565b820191906000526020600020905b815481529060010190602001808311610bb757829003601f168201915b50509350505050602060405180830381600087803b158015610bf557600080fd5b505af1158015610c09573d6000803e3d6000fd5b505050506040513d6020811015610c1f57600080fd5b50511515610c2c57600080fd5b801515610c3857600080fd5b600254610c4b908263ffffffff61105416565b6002556003546101009004600160a060020a0316600090815260208190526040902054610c789082611054565b60038054600160a060020a03610100918290048116600090815260208181526040918290209590955592548351868152935192900481169333909116927fbf67ec129007be07f346d9d2933215293a6612ce7ff17d6b479a5a5cae72890c929081900390910190a350565b60035460009060ff1615610cf657600080fd5b6106af33848461106a565b60035460ff1681565b60035460009060ff1615610d1d57600080fd5b600160a060020a03338116600090815260016020908152604080832093871683529290522054610d53908363ffffffff61105416565b600160a060020a0333811660008181526001602090815260408083209489168084529482529182902085905581519485529051929391927f8c5be1e5ebec7d5bd14f71427d1e84f3dd0314c0f7b2291e5b200ac8c7c3b9259281900390910190a350600192915050565b60035460009060ff1615610dd057600080fd5b50600160a060020a03918216600090815260016020908152604080832093909416825291909152205490565b60035460ff161515610e0d57600080fd5b6005546040805160e160020a634322bb8102815233600160a060020a03818116602484015260048381019485528054600260001960018316156101000201909116046044850181905291909516946386457702949093909182916064019085908015610eba5780601f10610e8f57610100808354040283529160200191610eba565b820191906000526020600020905b815481529060010190602001808311610e9d57829003601f168201915b50509350505050602060405180830381600087803b158015610edb57600080fd5b505af1158015610eef573d6000803e3d6000fd5b505050506040513d6020811015610f0557600080fd5b50511515610f1257600080fd5b600160a060020a0382161515610f2757600080fd5b801515610f3357600080fd5b600254610f46908263ffffffff61105416565b6002556003546101009004600160a060020a0316600090815260208190526040902054610f739082611054565b60038054600160a060020a03610100918290048116600090815260208181526040918290209590955592548351868152935192900481169333909116927fbf67ec129007be07f346d9d2933215293a6612ce7ff17d6b479a5a5cae72890c929081900390910190a3600354610ff7906101009004600160a060020a0316838361106a565b505050565b60035460ff16151561100d57600080fd5b6003805460ff191690556040517f27591baca3ab78e62a0cbf3b92bae5a04d5a1768b720a980d1f4671374c93c4c90600090a1565b60008282111561104e57fe5b50900390565b60008282018381101561106357fe5b9392505050565b6000600160a060020a038416151561108157600080fd5b600160a060020a038316151561109657600080fd5b600160a060020a0384166000908152602081905260409020548211156110bb57600080fd5b600160a060020a0384166000908152602081905260409020546110e4908363ffffffff61104216565b600160a060020a038086166000908152602081905260408082209390935590851681522054611119908363ffffffff61105416565b600160a060020a038085166000818152602081815260409182902094909455805186815290519193928816927fddf252ad1be2c89b69c2b068fc378daa952ba7f163c4a11628f55a4df523b3ef92918290030190a350600193925050505600a165627a7a72305820dcfa9aa5f166882421370c86129436b978bd65de9ecbd3d4673fde93876ef7f00029",
  "source": "pragma solidity ^0.4.23;\n\nimport \"../interfaces/BurnableTokenInterface.sol\";\n\nimport \"./MintableToken.sol\";\n\n/**\n * @title Burnable Token\n * @author Bram Hoven\n * @notice Contract for a token which can be burned during the sale or after\n */\ncontract BurnableToken is BurnableTokenInterface, MintableToken {\n\n  /**\n   * @notice Constructor for creating burnable token\n   * @param _depositAddress Address on which minted coins will be deposited\n   * @param _contractName Name of this contract for lookup in contract manager\n   * @param _contractManager Address where the contract manager is located\n   */\n  constructor(address _depositAddress, string _contractName, address _contractManager) public MintableToken(_depositAddress, _contractName, _contractManager) {\n  }\n\n  /**\n   * @notice Called when tokens have to be burned (only after sale)\n   * @param _tokens Amount of tokens to be burned\n   */\n  function burnTokens(uint256 _tokens) external {\n    require(!locked);\n    require(contractManager.authorize(contractName, msg.sender));\n\n    require(depositAddress != address(0));\n    require(_tokens != 0);\n    require(_tokens <= balances[depositAddress]);\n\n    balances[depositAddress] = balances[depositAddress].sub(_tokens);\n    totalSupply_ = totalSupply_.sub(_tokens);\n\n    emit TokensBurned(msg.sender, depositAddress, _tokens);\n  }\n}",
  "sourcePath": "/home/shinxs/Projects/fida/contracts/token/BurnableToken.sol",
  "compiler": {
    "name": "solc",
    "version": "0.4.23+commit.124ca40d.Emscripten.clang"
  },
  "schemaVersion": "2.0.0",
  "updatedAt": "2018-05-23T07:13:44.804Z"
}