{
  "contractName": "ContractManager",
  "abi": [
    {
      "inputs": [],
      "payable": false,
      "stateMutability": "nonpayable",
      "type": "constructor"
    },
    {
      "anonymous": false,
      "inputs": [
        {
          "indexed": true,
          "name": "_address",
          "type": "address"
        },
        {
          "indexed": false,
          "name": "_contractName",
          "type": "string"
        }
      ],
      "name": "ContractAdded",
      "type": "event"
    },
    {
      "anonymous": false,
      "inputs": [
        {
          "indexed": false,
          "name": "_contractName",
          "type": "string"
        }
      ],
      "name": "ContractRemoved",
      "type": "event"
    },
    {
      "anonymous": false,
      "inputs": [
        {
          "indexed": true,
          "name": "_oldAddress",
          "type": "address"
        },
        {
          "indexed": true,
          "name": "_newAddress",
          "type": "address"
        },
        {
          "indexed": false,
          "name": "_contractName",
          "type": "string"
        }
      ],
      "name": "ContractUpdated",
      "type": "event"
    },
    {
      "anonymous": false,
      "inputs": [
        {
          "indexed": true,
          "name": "_address",
          "type": "address"
        },
        {
          "indexed": false,
          "name": "_authorized",
          "type": "bool"
        },
        {
          "indexed": false,
          "name": "_contractName",
          "type": "string"
        }
      ],
      "name": "AuthorizationChanged",
      "type": "event"
    },
    {
      "constant": true,
      "inputs": [
        {
          "name": "_contractName",
          "type": "string"
        },
        {
          "name": "_accessor",
          "type": "address"
        }
      ],
      "name": "authorize",
      "outputs": [
        {
          "name": "",
          "type": "bool"
        }
      ],
      "payable": false,
      "stateMutability": "view",
      "type": "function"
    },
    {
      "constant": false,
      "inputs": [
        {
          "name": "_contractName",
          "type": "string"
        },
        {
          "name": "_address",
          "type": "address"
        }
      ],
      "name": "addContract",
      "outputs": [],
      "payable": false,
      "stateMutability": "nonpayable",
      "type": "function"
    },
    {
      "constant": true,
      "inputs": [
        {
          "name": "_contractName",
          "type": "string"
        }
      ],
      "name": "getContract",
      "outputs": [
        {
          "name": "_contractAddress",
          "type": "address"
        }
      ],
      "payable": false,
      "stateMutability": "view",
      "type": "function"
    },
    {
      "constant": false,
      "inputs": [
        {
          "name": "_contractName",
          "type": "string"
        }
      ],
      "name": "removeContract",
      "outputs": [],
      "payable": false,
      "stateMutability": "nonpayable",
      "type": "function"
    },
    {
      "constant": false,
      "inputs": [
        {
          "name": "_contractName",
          "type": "string"
        },
        {
          "name": "_newAddress",
          "type": "address"
        }
      ],
      "name": "updateContract",
      "outputs": [],
      "payable": false,
      "stateMutability": "nonpayable",
      "type": "function"
    },
    {
      "constant": false,
      "inputs": [
        {
          "name": "_contractName",
          "type": "string"
        },
        {
          "name": "_authorizedAddress",
          "type": "address"
        },
        {
          "name": "_authorized",
          "type": "bool"
        }
      ],
      "name": "setAuthorizedContract",
      "outputs": [],
      "payable": false,
      "stateMutability": "nonpayable",
      "type": "function"
    }
  ],
  "bytecode": "0x608060405234801561001057600080fd5b50604080517f436f6e74726163744d616e6167657200000000000000000000000000000000008082526000600f808401829052845193849003602f90810185208054600160a060020a03308116600160a060020a03199092169190911790915593855260019185018290528551948590030190932033909216815260209190915291909120805460ff19169091179055611113806100af6000396000f3006080604052600436106100775763ffffffff7c010000000000000000000000000000000000000000000000000000000060003504166335817773811461007c578063697a60b3146100b857806386457702146100e857806397623b581461012a578063bf5b60161461014a578063e0ae751f14610178575b600080fd5b34801561008857600080fd5b5061009c60048035602481019101356101ab565b60408051600160a060020a039092168252519081900360200190f35b3480156100c457600080fd5b506100e66024600480358281019291013590600160a060020a0390351661022d565b005b3480156100f457600080fd5b506101166024600480358281019291013590600160a060020a03903516610576565b604080519115158252519081900360200190f35b34801561013657600080fd5b506100e6600480356024810191013561075c565b34801561015657600080fd5b506100e66024600480358281019291013590600160a060020a03903516610a92565b34801561018457600080fd5b506100e66024600480358281019291013590600160a060020a039035166044351515610da4565b600080600160a060020a0316600084846040518083838082843790910194855250506040519283900360200190922054600160a060020a0316929092141591506101f6905057600080fd5b600083836040518083838082843790910194855250506040519283900360200190922054600160a060020a03169250505092915050565b606060006040805190810160405280600f81526020016000805160206110c88339815191528152503333600160a060020a03166000836040518082805190602001908083835b602083106102925780518252601f199092019160209182019101610273565b51815160209384036101000a6000190180199092169116179052920194855250604051938490030190922054600160a060020a031692909214915081905061034e575030600160a060020a03166000836040518082805190602001908083835b602083106103115780518252601f1990920191602091820191016102f2565b51815160209384036101000a6000190180199092169116179052920194855250604051938490030190922054600160a060020a0316929092149150505b151561035957600080fd5b600160a060020a038116151561036e57600080fd5b6001826040518082805190602001908083835b602083106103a05780518252601f199092019160209182019101610381565b51815160001960209485036101000a0190811690199190911617905292019485525060408051948590038201909420600160a060020a03861660009081529152929092205460ff16151560011491506103fa905057600080fd5b86868080601f016020809104026020016040519081016040528093929190818152602001838380828437505084519498505050911515915061043d905057600080fd5b6000600160a060020a0316600088886040518083838082843790910194855250506040519283900360200190922054600160a060020a031692909214159150610487905057600080fd5b600160a060020a038516151561049c57600080fd5b6000878760405180838380828437909101948552505060405192839003602001832054600160a060020a031695508792600092508a91508990808383808284379190910194855250506040805160209481900385018120805473ffffffffffffffffffffffffffffffffffffffff1916600160a060020a039788161790558481529384018b9052898516948816937fe4b082676954a468975c4cd80a247c2ff3af6c1c5278809d12d40b53056ab71e93508c92508b918190810184848082843760405192018290039550909350505050a350505050505050565b600083838080601f0160208091040260200160405190810160405280939291908181526020018383808284378201915050505050508233600160a060020a03166000836040518082805190602001908083835b602083106105e85780518252601f1990920191602091820191016105c9565b51815160209384036101000a6000190180199092169116179052920194855250604051938490030190922054600160a060020a03169290921491508190506106a4575030600160a060020a03166000836040518082805190602001908083835b602083106106675780518252601f199092019160209182019101610648565b51815160209384036101000a6000190180199092169116179052920194855250604051938490030190922054600160a060020a0316929092149150505b15156106af57600080fd5b600160a060020a03811615156106c457600080fd5b6001826040518082805190602001908083835b602083106106f65780518252601f1990920191602091820191016106d7565b51815160001960209485036101000a0190811690199190911617905292019485525060408051948590038201909420600160a060020a03861660009081529152929092205460ff1615156001149150610750905057600080fd5b50600195945050505050565b60606040805190810160405280600f81526020016000805160206110c88339815191528152503333600160a060020a03166000836040518082805190602001908083835b602083106107bf5780518252601f1990920191602091820191016107a0565b51815160209384036101000a6000190180199092169116179052920194855250604051938490030190922054600160a060020a031692909214915081905061087b575030600160a060020a03166000836040518082805190602001908083835b6020831061083e5780518252601f19909201916020918201910161081f565b51815160209384036101000a6000190180199092169116179052920194855250604051938490030190922054600160a060020a0316929092149150505b151561088657600080fd5b600160a060020a038116151561089b57600080fd5b6001826040518082805190602001908083835b602083106108cd5780518252601f1990920191602091820191016108ae565b51815160001960209485036101000a0190811690199190911617905292019485525060408051948590038201909420600160a060020a03861660009081529152929092205460ff1615156001149150610927905057600080fd5b84848080601f016020809104026020016040519081016040528093929190818152602001838380828437505084519497505050911515915061096a905057600080fd5b604080516000805160206110c88339815191528152905190819003600f0181209086908690808383808284376040519201829003909120949094141593506109b59250505057600080fd5b6000600160a060020a0316600086866040518083838082843790910194855250506040519283900360200190922054600160a060020a0316929092141591506109ff905057600080fd5b60008585604051808383808284379091019485525050604080519384900360209081018520805473ffffffffffffffffffffffffffffffffffffffff1916905580855284018890527f0c4eafbc12ea2584eb34031bf52952af5909a5880ef4058cb05c627ae39ffda093899350889250908190810184848082843760405192018290039550909350505050a15050505050565b60606040805190810160405280600f81526020016000805160206110c88339815191528152503333600160a060020a03166000836040518082805190602001908083835b60208310610af55780518252601f199092019160209182019101610ad6565b51815160209384036101000a6000190180199092169116179052920194855250604051938490030190922054600160a060020a0316929092149150819050610bb1575030600160a060020a03166000836040518082805190602001908083835b60208310610b745780518252601f199092019160209182019101610b55565b51815160209384036101000a6000190180199092169116179052920194855250604051938490030190922054600160a060020a0316929092149150505b1515610bbc57600080fd5b600160a060020a0381161515610bd157600080fd5b6001826040518082805190602001908083835b60208310610c035780518252601f199092019160209182019101610be4565b51815160001960209485036101000a0190811690199190911617905292019485525060408051948590038201909420600160a060020a03861660009081529152929092205460ff1615156001149150610c5d905057600080fd5b85858080601f0160208091040260200160405190810160405280939291908181526020018383808284375050845194975050509115159150610ca0905057600080fd5b6000600160a060020a0316600087876040518083838082843790910194855250506040519283900360200190922054600160a060020a0316929092149150610ce9905057600080fd5b600160a060020a0384161515610cfe57600080fd5b8360008787604051808383808284379190910194855250506040805160209481900385018120805473ffffffffffffffffffffffffffffffffffffffff1916600160a060020a039788161790558481529384018a9052938816937fccdd6d86e4b322abaa06bff8c608dd15838f4159cc081c9c66a50fec320f38a7938b93508a9250908190810184848082843760405192018290039550909350505050a2505050505050565b60606040805190810160405280600f81526020016000805160206110c88339815191528152503333600160a060020a03166000836040518082805190602001908083835b60208310610e075780518252601f199092019160209182019101610de8565b51815160209384036101000a6000190180199092169116179052920194855250604051938490030190922054600160a060020a0316929092149150819050610ec3575030600160a060020a03166000836040518082805190602001908083835b60208310610e865780518252601f199092019160209182019101610e67565b51815160209384036101000a6000190180199092169116179052920194855250604051938490030190922054600160a060020a0316929092149150505b1515610ece57600080fd5b600160a060020a0381161515610ee357600080fd5b6001826040518082805190602001908083835b60208310610f155780518252601f199092019160209182019101610ef6565b51815160001960209485036101000a0190811690199190911617905292019485525060408051948590038201909420600160a060020a03861660009081529152929092205460ff1615156001149150610f6f905057600080fd5b86868080601f0160208091040260200160405190810160405280939291908181526020018383808284375050845194975050509115159150610fb2905057600080fd5b600160a060020a0385161515610fc757600080fd5b83151560018888604051808383808284379190910194855250506040805160209481900385019020600160a060020a038b16600090815294529092205460ff1615159290921415915061101b905057600080fd5b8360018888604051808383808284379190910194855250506040805160209481900385018120600160a060020a038c16600081815291875290839020805460ff19169715159790971790965589151581529384018181529084018b90527f656925a770b4cfa7c213768fc3baa9c192315d166876ef10725b31747d5952cb938993508c92508b91606082018484808284376040519201829003965090945050505050a2505050505050505600436f6e74726163744d616e616765720000000000000000000000000000000000a165627a7a723058204f804bab46417ae424aad3411ab2717cadac153377f29e84da6d1f3a4611f3ef0029",
  "source": "pragma solidity ^0.4.23;\n\nimport \"./interfaces/ContractManagerInterface.sol\";\n\n/**\n * @title Contract Manager\n * @author Bram Hoven\n * @notice Contract whom manages every other contract connected to this project and the authorization\n */\ncontract ContractManager is ContractManagerInterface {\n  // Mapping of all contracts and their name\n  mapping(string => address) private contracts;\n  // Mapping of all contracts and who has access to them\n  mapping(string => mapping(address => bool)) private authorization;\n\n  /**\n   * @notice Triggered when contract is added\n   * @param _address Address of the new contract\n   * @param _contractName Name of the new contract\n   */\n  event ContractAdded(address indexed _address, string _contractName);\n\n  /**\n   * @notice Triggered when contract is removed\n   * @param _contractName Name of the contract that is removed\n   */\n  event ContractRemoved(string _contractName);\n\n  /**\n   * @notice Triggered when contract is updated\n   * @param _oldAddress Address where the contract used to be\n   * @param _newAddress Address where the new contract is deployed\n   * @param _contractName Name of the contract that has been updated\n   */\n  event ContractUpdated(address indexed _oldAddress, address indexed _newAddress, string _contractName);\n\n  /**\n   * @notice Triggered when authorization status changed\n   * @param _address Address who will gain or lose authorization to _contractName\n   * @param _authorized Boolean whether or not the address is authorized\n   * @param _contractName Name of the contract\n   */\n  event AuthorizationChanged(address indexed _address, bool _authorized, string _contractName);\n\n  /**\n   * @dev Throws when sender does not match contract name\n   * @param _contractName Name of the contract the sender is checked against\n   */\n  modifier onlyRegisteredContract(string _contractName) {\n    require(contracts[_contractName] == msg.sender);\n    _;\n  }\n\n  /**\n   * @dev Throws when sender is not owner of contract manager\n   * @param _contractName Name of the contract to check the _accessor against\n   * @param _accessor Address that wants to access this specific contract\n   */\n  modifier onlyContractOwner(string _contractName, address _accessor) {\n    require(contracts[_contractName] == msg.sender || contracts[_contractName] == address(this));\n    require(_accessor != address(0));\n    require(authorization[_contractName][_accessor] == true);\n    _;\n  }\n\n  /**\n   * @notice Constructor for creating the contract manager\n   */\n  constructor() public {\n    contracts[\"ContractManager\"] = address(this);\n    authorization[\"ContractManager\"][msg.sender] = true;\n  }\n\n  /**\n   * @notice Check whether the accessor is authorized to access that contract\n   * @param _contractName Name of the contract that is being accessed\n   * @param _accessor Address who wants to access that contract\n   */\n  function authorize(string _contractName, address _accessor) external onlyContractOwner(_contractName, _accessor) view returns (bool) {\n    return true;\n  }\n\n  /**\n   * @notice Add a new contract to the manager\n   * @param _contractName Name of the new contract\n   * @param _address Address of the new contract\n   */\n  function addContract(string _contractName, address _address) external  onlyContractOwner(\"ContractManager\", msg.sender) {\n    bytes memory contractNameBytes = bytes(_contractName);\n\n    require(contractNameBytes.length != 0);\n    require(contracts[_contractName] == address(0));\n    require(_address != address(0));\n\n    contracts[_contractName] = _address;\n\n    emit ContractAdded(_address, _contractName);\n  }\n\n  /**\n   * @notice Get a contract by its name\n   * @param _contractName Name of the contract\n   */\n  function getContract(string _contractName) external view returns (address _contractAddress) {\n    require(contracts[_contractName] != address(0));\n\n    _contractAddress = contracts[_contractName];\n\n    return _contractAddress;\n  }\n\n  /**\n   * @notice Remove an existing contract\n   * @param _contractName Name of the contract that will be removed\n   */\n  function removeContract(string _contractName) external onlyContractOwner(\"ContractManager\", msg.sender) {\n    bytes memory contractNameBytes = bytes(_contractName);\n\n    require(contractNameBytes.length != 0);\n    // Should not be able to remove this contract\n    require(keccak256(_contractName) != keccak256(\"ContractManager\"));\n    require(contracts[_contractName] != address(0));\n    \n    delete contracts[_contractName];\n\n    emit ContractRemoved(_contractName);\n  }\n\n  /**\n   * @notice Update an existing contract (changing the address)\n   * @param _contractName Name of the existing contract\n   * @param _newAddress Address where the new contract is deployed\n   */\n  function updateContract(string _contractName, address _newAddress) external onlyContractOwner(\"ContractManager\", msg.sender) {\n    bytes memory contractNameBytes = bytes(_contractName);\n\n    require(contractNameBytes.length != 0);\n    require(contracts[_contractName] != address(0));\n    require(_newAddress != address(0));\n\n    address oldAddress = contracts[_contractName];\n    contracts[_contractName] = _newAddress;\n\n    emit ContractUpdated(oldAddress, _newAddress, _contractName);\n  }\n\n  /**\n   * @notice Change whether an address is authorized to use a specific contract or not\n   * @param _contractName Name of the contract to which the accessor will gain authorization or not\n   * @param _authorizedAddress Address which will have its authorisation status changed\n   * @param _authorized Boolean whether the address will have access or not\n   */\n  function setAuthorizedContract(string _contractName, address _authorizedAddress, bool _authorized) external onlyContractOwner(\"ContractManager\", msg.sender) {\n    bytes memory contractNameBytes = bytes(_contractName);\n\n    require(contractNameBytes.length != 0);\n    require(_authorizedAddress != address(0));\n    require(authorization[_contractName][_authorizedAddress] != _authorized);\n    \n    authorization[_contractName][_authorizedAddress] = _authorized;\n\n    emit AuthorizationChanged(_authorizedAddress, _authorized, _contractName);\n  }\n}\n",
  "sourcePath": "/home/shinxs/Projects/fida/contracts/ContractManager.sol",
  "compiler": {
    "name": "solc",
    "version": "0.4.23+commit.124ca40d.Emscripten.clang"
  },
  "schemaVersion": "2.0.0",
  "updatedAt": "2018-05-23T08:44:56.124Z"
}