{
  "contractName": "FidaToken",
  "abi": [
    {
      "constant": true,
      "inputs": [],
      "name": "name",
      "outputs": [
        {
          "name": "",
          "type": "string"
        }
      ],
      "payable": false,
      "stateMutability": "view",
      "type": "function"
    },
    {
      "constant": false,
      "inputs": [
        {
          "name": "_spender",
          "type": "address"
        },
        {
          "name": "_value",
          "type": "uint256"
        }
      ],
      "name": "approve",
      "outputs": [
        {
          "name": "",
          "type": "bool"
        }
      ],
      "payable": false,
      "stateMutability": "nonpayable",
      "type": "function"
    },
    {
      "constant": true,
      "inputs": [],
      "name": "totalSupply",
      "outputs": [
        {
          "name": "",
          "type": "uint256"
        }
      ],
      "payable": false,
      "stateMutability": "view",
      "type": "function"
    },
    {
      "constant": false,
      "inputs": [
        {
          "name": "_from",
          "type": "address"
        },
        {
          "name": "_to",
          "type": "address"
        },
        {
          "name": "_value",
          "type": "uint256"
        }
      ],
      "name": "transferFrom",
      "outputs": [
        {
          "name": "",
          "type": "bool"
        }
      ],
      "payable": false,
      "stateMutability": "nonpayable",
      "type": "function"
    },
    {
      "constant": true,
      "inputs": [],
      "name": "depositAddress",
      "outputs": [
        {
          "name": "",
          "type": "address"
        }
      ],
      "payable": false,
      "stateMutability": "view",
      "type": "function"
    },
    {
      "constant": true,
      "inputs": [],
      "name": "decimals",
      "outputs": [
        {
          "name": "",
          "type": "uint8"
        }
      ],
      "payable": false,
      "stateMutability": "view",
      "type": "function"
    },
    {
      "constant": false,
      "inputs": [
        {
          "name": "_spender",
          "type": "address"
        },
        {
          "name": "_subtractedValue",
          "type": "uint256"
        }
      ],
      "name": "decreaseApproval",
      "outputs": [
        {
          "name": "",
          "type": "bool"
        }
      ],
      "payable": false,
      "stateMutability": "nonpayable",
      "type": "function"
    },
    {
      "constant": false,
      "inputs": [
        {
          "name": "_tokens",
          "type": "uint256"
        }
      ],
      "name": "burnTokens",
      "outputs": [],
      "payable": false,
      "stateMutability": "nonpayable",
      "type": "function"
    },
    {
      "constant": false,
      "inputs": [
        {
          "name": "_depositAddress",
          "type": "address"
        }
      ],
      "name": "changeDepositAddress",
      "outputs": [],
      "payable": false,
      "stateMutability": "nonpayable",
      "type": "function"
    },
    {
      "constant": true,
      "inputs": [
        {
          "name": "_owner",
          "type": "address"
        }
      ],
      "name": "balanceOf",
      "outputs": [
        {
          "name": "balance",
          "type": "uint256"
        }
      ],
      "payable": false,
      "stateMutability": "view",
      "type": "function"
    },
    {
      "constant": true,
      "inputs": [],
      "name": "contractName",
      "outputs": [
        {
          "name": "",
          "type": "string"
        }
      ],
      "payable": false,
      "stateMutability": "view",
      "type": "function"
    },
    {
      "constant": true,
      "inputs": [],
      "name": "symbol",
      "outputs": [
        {
          "name": "",
          "type": "string"
        }
      ],
      "payable": false,
      "stateMutability": "view",
      "type": "function"
    },
    {
      "constant": false,
      "inputs": [
        {
          "name": "_tokens",
          "type": "uint256"
        }
      ],
      "name": "mintTokens",
      "outputs": [],
      "payable": false,
      "stateMutability": "nonpayable",
      "type": "function"
    },
    {
      "constant": false,
      "inputs": [
        {
          "name": "_to",
          "type": "address"
        },
        {
          "name": "_value",
          "type": "uint256"
        }
      ],
      "name": "transfer",
      "outputs": [
        {
          "name": "",
          "type": "bool"
        }
      ],
      "payable": false,
      "stateMutability": "nonpayable",
      "type": "function"
    },
    {
      "constant": true,
      "inputs": [],
      "name": "locked",
      "outputs": [
        {
          "name": "",
          "type": "bool"
        }
      ],
      "payable": false,
      "stateMutability": "view",
      "type": "function"
    },
    {
      "constant": false,
      "inputs": [
        {
          "name": "_spender",
          "type": "address"
        },
        {
          "name": "_addedValue",
          "type": "uint256"
        }
      ],
      "name": "increaseApproval",
      "outputs": [
        {
          "name": "",
          "type": "bool"
        }
      ],
      "payable": false,
      "stateMutability": "nonpayable",
      "type": "function"
    },
    {
      "constant": true,
      "inputs": [
        {
          "name": "_owner",
          "type": "address"
        },
        {
          "name": "_spender",
          "type": "address"
        }
      ],
      "name": "allowance",
      "outputs": [
        {
          "name": "",
          "type": "uint256"
        }
      ],
      "payable": false,
      "stateMutability": "view",
      "type": "function"
    },
    {
      "constant": false,
      "inputs": [
        {
          "name": "_beneficiary",
          "type": "address"
        },
        {
          "name": "_tokens",
          "type": "uint256"
        }
      ],
      "name": "sendBoughtTokens",
      "outputs": [],
      "payable": false,
      "stateMutability": "nonpayable",
      "type": "function"
    },
    {
      "inputs": [
        {
          "name": "_depositAddress",
          "type": "address"
        },
        {
          "name": "_contractName",
          "type": "string"
        },
        {
          "name": "_contractManager",
          "type": "address"
        }
      ],
      "payable": false,
      "stateMutability": "nonpayable",
      "type": "constructor"
    },
    {
      "anonymous": false,
      "inputs": [],
      "name": "TokensUnlocked",
      "type": "event"
    },
    {
      "anonymous": false,
      "inputs": [
        {
          "indexed": true,
          "name": "owner",
          "type": "address"
        },
        {
          "indexed": true,
          "name": "spender",
          "type": "address"
        },
        {
          "indexed": false,
          "name": "value",
          "type": "uint256"
        }
      ],
      "name": "Approval",
      "type": "event"
    },
    {
      "anonymous": false,
      "inputs": [
        {
          "indexed": true,
          "name": "from",
          "type": "address"
        },
        {
          "indexed": true,
          "name": "to",
          "type": "address"
        },
        {
          "indexed": false,
          "name": "value",
          "type": "uint256"
        }
      ],
      "name": "Transfer",
      "type": "event"
    },
    {
      "anonymous": false,
      "inputs": [
        {
          "indexed": true,
          "name": "_from",
          "type": "address"
        },
        {
          "indexed": true,
          "name": "_to",
          "type": "address"
        },
        {
          "indexed": false,
          "name": "_tokens",
          "type": "uint256"
        }
      ],
      "name": "TokensMinted",
      "type": "event"
    },
    {
      "anonymous": false,
      "inputs": [
        {
          "indexed": true,
          "name": "_old",
          "type": "address"
        },
        {
          "indexed": true,
          "name": "_new",
          "type": "address"
        }
      ],
      "name": "DepositAddressChanged",
      "type": "event"
    },
    {
      "anonymous": false,
      "inputs": [
        {
          "indexed": true,
          "name": "_triggerer",
          "type": "address"
        },
        {
          "indexed": true,
          "name": "_from",
          "type": "address"
        },
        {
          "indexed": false,
          "name": "_tokens",
          "type": "uint256"
        }
      ],
      "name": "TokensBurned",
      "type": "event"
    },
    {
      "constant": false,
      "inputs": [],
      "name": "unlockTokens",
      "outputs": [],
      "payable": false,
      "stateMutability": "nonpayable",
      "type": "function"
    }
  ],
  "bytecode": "0x6003805460ff1916600117905560c0604052600460808190527f666964610000000000000000000000000000000000000000000000000000000060a09081526200004d91600691906200014c565b506040805180820190915260048082527f6669646100000000000000000000000000000000000000000000000000000000602090920191825262000094916007916200014c565b506008805460ff19166012179055348015620000af57600080fd5b50604051620015e9380380620015e98339810160409081528151602080840151928401516003805461010060a860020a031916610100600160a060020a0386160217905592909301805191939092918491849184918491849184916200011c91600491908501906200014c565b5060058054600160a060020a031916600160a060020a039290921691909117905550620001f19650505050505050565b828054600181600116156101000203166002900490600052602060002090601f016020900481019282601f106200018f57805160ff1916838001178555620001bf565b82800160010185558215620001bf579182015b82811115620001bf578251825591602001919060010190620001a2565b50620001cd929150620001d1565b5090565b620001ee91905b80821115620001cd5760008155600101620001d8565b90565b6113e880620002016000396000f3006080604052600436106101065763ffffffff7c010000000000000000000000000000000000000000000000000000000060003504166306fdde03811461010b578063095ea7b31461019557806318160ddd146101cd57806323b872dd146101f457806328f833b71461021e578063313ce5671461024f578063661884631461027a5780636d1b229d1461029e5780636d58c88f146102b857806370a08231146102d957806375d0c0dc146102fa57806395d89b411461030f57806397304ced14610324578063a9059cbb1461033c578063cf30901214610360578063d73dd62314610375578063dd62ed3e14610399578063f3cd543f146103c0578063f968f493146103e4575b600080fd5b34801561011757600080fd5b506101206103f9565b6040805160208082528351818301528351919283929083019185019080838360005b8381101561015a578181015183820152602001610142565b50505050905090810190601f1680156101875780820380516001836020036101000a031916815260200191505b509250505060405180910390f35b3480156101a157600080fd5b506101b9600160a060020a0360043516602435610487565b604080519115158252519081900360200190f35b3480156101d957600080fd5b506101e2610500565b60408051918252519081900360200190f35b34801561020057600080fd5b506101b9600160a060020a0360043581169060243516604435610506565b34801561022a57600080fd5b50610233610697565b60408051600160a060020a039092168252519081900360200190f35b34801561025b57600080fd5b506102646106ab565b6040805160ff9092168252519081900360200190f35b34801561028657600080fd5b506101b9600160a060020a03600435166024356106b4565b3480156102aa57600080fd5b506102b66004356107c3565b005b3480156102c457600080fd5b506102b6600160a060020a03600435166109d4565b3480156102e557600080fd5b506101e2600160a060020a0360043516610b7b565b34801561030657600080fd5b50610120610b96565b34801561031b57600080fd5b50610120610bf1565b34801561033057600080fd5b506102b6600435610c4c565b34801561034857600080fd5b506101b9600160a060020a0360043516602435610e18565b34801561036c57600080fd5b506101b9610e36565b34801561038157600080fd5b506101b9600160a060020a0360043516602435610e3f565b3480156103a557600080fd5b506101e2600160a060020a0360043581169060243516610ef2565b3480156103cc57600080fd5b506102b6600160a060020a0360043516602435610f31565b3480156103f057600080fd5b506102b6611131565b6006805460408051602060026001851615610100026000190190941693909304601f8101849004840282018401909252818152929183018282801561047f5780601f106104545761010080835404028352916020019161047f565b820191906000526020600020905b81548152906001019060200180831161046257829003601f168201915b505050505081565b60035460009060ff161561049a57600080fd5b600160a060020a03338116600081815260016020908152604080832094881680845294825291829020869055815186815291517f8c5be1e5ebec7d5bd14f71427d1e84f3dd0314c0f7b2291e5b200ac8c7c3b9259281900390910190a350600192915050565b60025490565b60035460009060ff161561051957600080fd5b600160a060020a038316151561052e57600080fd5b600160a060020a03841660009081526020819052604090205482111561055357600080fd5b600160a060020a038085166000908152600160209081526040808320339094168352929052205482111561058657600080fd5b600160a060020a0384166000908152602081905260409020546105af908363ffffffff61124016565b600160a060020a0380861660009081526020819052604080822093909355908516815220546105e4908363ffffffff61125216565b600160a060020a038085166000908152602081815260408083209490945587831682526001815283822033909316825291909152205461062a908363ffffffff61124016565b600160a060020a038086166000818152600160209081526040808320338616845282529182902094909455805186815290519287169391927fddf252ad1be2c89b69c2b068fc378daa952ba7f163c4a11628f55a4df523b3ef929181900390910190a35060019392505050565b6003546101009004600160a060020a031681565b60085460ff1681565b600354600090819060ff16156106c957600080fd5b50600160a060020a033381166000908152600160209081526040808320938716835292905220548083111561072557600160a060020a03338116600090815260016020908152604080832093881683529290529081205561075c565b610735818463ffffffff61124016565b600160a060020a033381166000908152600160209081526040808320938916835292905220555b600160a060020a0333811660008181526001602090815260408083209489168084529482529182902054825190815291517f8c5be1e5ebec7d5bd14f71427d1e84f3dd0314c0f7b2291e5b200ac8c7c3b9259281900390910190a3600191505b5092915050565b60035460ff16156107d357600080fd5b6005546040805160e160020a634322bb8102815233600160a060020a038181166024840152600483810194855280546002600019600183161561010002019091160460448501819052919095169463864577029490939091829160640190859080156108805780601f1061085557610100808354040283529160200191610880565b820191906000526020600020905b81548152906001019060200180831161086357829003601f168201915b50509350505050602060405180830381600087803b1580156108a157600080fd5b505af11580156108b5573d6000803e3d6000fd5b505050506040513d60208110156108cb57600080fd5b505115156108d857600080fd5b6003546101009004600160a060020a031615156108f457600080fd5b80151561090057600080fd5b6003546101009004600160a060020a031660009081526020819052604090205481111561092c57600080fd5b6003546101009004600160a060020a03166000908152602081905260409020546109569082611240565b6003546101009004600160a060020a03166000908152602081905260409020556002546109839082611240565b600255600354604080518381529051600160a060020a036101009093048316923316917f857ac1c9e97cc66ecae5f524c9c611463ae748b85af3ca454a5ec4d7d341924d919081900360200190a350565b6005546040805160e160020a634322bb81028152600160a060020a03338181166024840152600480840194855280546002610100600183161502600019019091160460448501819052600096939093169463864577029491939091829160649091019085908015610a865780601f10610a5b57610100808354040283529160200191610a86565b820191906000526020600020905b815481529060010190602001808311610a6957829003601f168201915b50509350505050602060405180830381600087803b158015610aa757600080fd5b505af1158015610abb573d6000803e3d6000fd5b505050506040513d6020811015610ad157600080fd5b50511515610ade57600080fd5b600160a060020a0382161515610af357600080fd5b600354600160a060020a03838116610100909204161415610b1357600080fd5b5060038054600160a060020a0383811661010081810274ffffffffffffffffffffffffffffffffffffffff001985161790945560405193909204169182907fa2fa2b3cf1d10ada9e20317a6f64da336f58a46a30201f975780faf6f0e0aa4490600090a35050565b600160a060020a031660009081526020819052604090205490565b6004805460408051602060026001851615610100026000190190941693909304601f8101849004840282018401909252818152929183018282801561047f5780601f106104545761010080835404028352916020019161047f565b6007805460408051602060026001851615610100026000190190941693909304601f8101849004840282018401909252818152929183018282801561047f5780601f106104545761010080835404028352916020019161047f565b60035460ff1615610c5c57600080fd5b6005546040805160e160020a634322bb8102815233600160a060020a03818116602484015260048381019485528054600260001960018316156101000201909116046044850181905291909516946386457702949093909182916064019085908015610d095780601f10610cde57610100808354040283529160200191610d09565b820191906000526020600020905b815481529060010190602001808311610cec57829003601f168201915b50509350505050602060405180830381600087803b158015610d2a57600080fd5b505af1158015610d3e573d6000803e3d6000fd5b505050506040513d6020811015610d5457600080fd5b50511515610d6157600080fd5b801515610d6d57600080fd5b600254610d80908263ffffffff61125216565b6002556003546101009004600160a060020a0316600090815260208190526040902054610dad9082611252565b60038054600160a060020a03610100918290048116600090815260208181526040918290209590955592548351868152935192900481169333909116927fbf67ec129007be07f346d9d2933215293a6612ce7ff17d6b479a5a5cae72890c929081900390910190a350565b60035460009060ff1615610e2b57600080fd5b6107bc338484611268565b60035460ff1681565b60035460009060ff1615610e5257600080fd5b600160a060020a03338116600090815260016020908152604080832093871683529290522054610e88908363ffffffff61125216565b600160a060020a0333811660008181526001602090815260408083209489168084529482529182902085905581519485529051929391927f8c5be1e5ebec7d5bd14f71427d1e84f3dd0314c0f7b2291e5b200ac8c7c3b9259281900390910190a350600192915050565b60035460009060ff1615610f0557600080fd5b50600160a060020a03918216600090815260016020908152604080832093909416825291909152205490565b60035460ff161515610f4257600080fd5b6005546040805160e160020a634322bb8102815233600160a060020a03818116602484015260048381019485528054600260001960018316156101000201909116046044850181905291909516946386457702949093909182916064019085908015610fef5780601f10610fc457610100808354040283529160200191610fef565b820191906000526020600020905b815481529060010190602001808311610fd257829003601f168201915b50509350505050602060405180830381600087803b15801561101057600080fd5b505af1158015611024573d6000803e3d6000fd5b505050506040513d602081101561103a57600080fd5b5051151561104757600080fd5b600160a060020a038216151561105c57600080fd5b80151561106857600080fd5b60025461107b908263ffffffff61125216565b6002556003546101009004600160a060020a03166000908152602081905260409020546110a89082611252565b60038054600160a060020a03610100918290048116600090815260208181526040918290209590955592548351868152935192900481169333909116927fbf67ec129007be07f346d9d2933215293a6612ce7ff17d6b479a5a5cae72890c929081900390910190a360035461112c906101009004600160a060020a03168383611268565b505050565b6005546040805160e160020a634322bb8102815233600160a060020a038181166024840152600483810194855280546002600019600183161561010002019091160460448501819052919095169463864577029490939091829160640190859080156111de5780601f106111b3576101008083540402835291602001916111de565b820191906000526020600020905b8154815290600101906020018083116111c157829003601f168201915b50509350505050602060405180830381600087803b1580156111ff57600080fd5b505af1158015611213573d6000803e3d6000fd5b505050506040513d602081101561122957600080fd5b5051151561123657600080fd5b61123e611376565b565b60008282111561124c57fe5b50900390565b60008282018381101561126157fe5b9392505050565b6000600160a060020a038416151561127f57600080fd5b600160a060020a038316151561129457600080fd5b600160a060020a0384166000908152602081905260409020548211156112b957600080fd5b600160a060020a0384166000908152602081905260409020546112e2908363ffffffff61124016565b600160a060020a038086166000908152602081905260408082209390935590851681522054611317908363ffffffff61125216565b600160a060020a038085166000818152602081815260409182902094909455805186815290519193928816927fddf252ad1be2c89b69c2b068fc378daa952ba7f163c4a11628f55a4df523b3ef92918290030190a35060019392505050565b60035460ff16151561138757600080fd5b6003805460ff191690556040517f27591baca3ab78e62a0cbf3b92bae5a04d5a1768b720a980d1f4671374c93c4c90600090a15600a165627a7a723058207a73b2d41665f3294db086053cfcaa6993d0c9d0000d0bed841efa17cbf8cc9c0029",
  "source": "pragma solidity ^0.4.23;\n\nimport \"./BurnableToken.sol\";\n\n/**\n * @title Fida Token\n * @author Bram Hoven\n * @notice Token contract for the fida token\n */\ncontract FidaToken is BurnableToken {\n  string public name = \"fida\";\n  string public symbol = \"fida\";\n  uint8 public decimals = 18;\n  \n  /**\n   * @notice Constructor which creates the fida token\n   * @param _depositAddress Address on which minted tokens are deposited\n   * @param _contractName Name of this contract for lookup in contract manager\n   * @param _contractManager Address where the contract manager is located\n   */\n  constructor(address _depositAddress, string _contractName, address _contractManager) public BurnableToken(_depositAddress, _contractName, _contractManager) {}\n\n  /**\n   * @notice Unlock tokens, hereafter they will be tradable\n   */\n  function unlockTokens() public {\n    require(contractManager.authorize(contractName, msg.sender));\n\n    BasicToken.unlockTokens();\n  }\n}",
  "sourcePath": "/home/shinxs/Projects/fida/contracts/token/FidaToken.sol",
  "compiler": {
    "name": "solc",
    "version": "0.4.23+commit.124ca40d.Emscripten.clang"
  },
  "schemaVersion": "2.0.0",
  "updatedAt": "2018-05-23T08:44:56.093Z"
}