{
  "contractName": "FidaSale",
  "abi": [
    {
      "constant": true,
      "inputs": [],
      "name": "whitelistingAddress",
      "outputs": [
        {
          "name": "",
          "type": "address"
        }
      ],
      "payable": false,
      "stateMutability": "view",
      "type": "function"
    },
    {
      "constant": true,
      "inputs": [],
      "name": "fidaTokenAddress",
      "outputs": [
        {
          "name": "",
          "type": "address"
        }
      ],
      "payable": false,
      "stateMutability": "view",
      "type": "function"
    },
    {
      "constant": true,
      "inputs": [],
      "name": "started",
      "outputs": [
        {
          "name": "",
          "type": "bool"
        }
      ],
      "payable": false,
      "stateMutability": "view",
      "type": "function"
    },
    {
      "constant": true,
      "inputs": [],
      "name": "bonusProgramEnded",
      "outputs": [
        {
          "name": "",
          "type": "bool"
        }
      ],
      "payable": false,
      "stateMutability": "view",
      "type": "function"
    },
    {
      "constant": false,
      "inputs": [
        {
          "name": "_id",
          "type": "bytes32"
        },
        {
          "name": "_result",
          "type": "string"
        }
      ],
      "name": "__callback",
      "outputs": [],
      "payable": false,
      "stateMutability": "nonpayable",
      "type": "function"
    },
    {
      "constant": true,
      "inputs": [],
      "name": "DECIMALS",
      "outputs": [
        {
          "name": "",
          "type": "uint256"
        }
      ],
      "payable": false,
      "stateMutability": "view",
      "type": "function"
    },
    {
      "constant": false,
      "inputs": [
        {
          "name": "_tokens",
          "type": "uint256"
        },
        {
          "name": "_address",
          "type": "address"
        }
      ],
      "name": "giveBounty",
      "outputs": [],
      "payable": false,
      "stateMutability": "nonpayable",
      "type": "function"
    },
    {
      "constant": false,
      "inputs": [
        {
          "name": "myid",
          "type": "bytes32"
        },
        {
          "name": "result",
          "type": "string"
        },
        {
          "name": "proof",
          "type": "bytes"
        }
      ],
      "name": "__callback",
      "outputs": [],
      "payable": false,
      "stateMutability": "nonpayable",
      "type": "function"
    },
    {
      "constant": true,
      "inputs": [],
      "name": "wallet",
      "outputs": [
        {
          "name": "",
          "type": "address"
        }
      ],
      "payable": false,
      "stateMutability": "view",
      "type": "function"
    },
    {
      "constant": true,
      "inputs": [],
      "name": "btcTokenBoughtAddress",
      "outputs": [
        {
          "name": "",
          "type": "address"
        }
      ],
      "payable": false,
      "stateMutability": "view",
      "type": "function"
    },
    {
      "constant": false,
      "inputs": [],
      "name": "updatePrice",
      "outputs": [],
      "payable": true,
      "stateMutability": "payable",
      "type": "function"
    },
    {
      "constant": true,
      "inputs": [],
      "name": "earlybird",
      "outputs": [
        {
          "name": "",
          "type": "address"
        }
      ],
      "payable": false,
      "stateMutability": "view",
      "type": "function"
    },
    {
      "constant": true,
      "inputs": [
        {
          "name": "",
          "type": "address"
        }
      ],
      "name": "investors",
      "outputs": [
        {
          "name": "",
          "type": "uint256"
        }
      ],
      "payable": false,
      "stateMutability": "view",
      "type": "function"
    },
    {
      "constant": true,
      "inputs": [],
      "name": "INITIAL_EARLYBIRD_TOKENS",
      "outputs": [
        {
          "name": "",
          "type": "uint256"
        }
      ],
      "payable": false,
      "stateMutability": "view",
      "type": "function"
    },
    {
      "constant": true,
      "inputs": [],
      "name": "fidaPerEther",
      "outputs": [
        {
          "name": "",
          "type": "uint256"
        }
      ],
      "payable": false,
      "stateMutability": "view",
      "type": "function"
    },
    {
      "constant": true,
      "inputs": [
        {
          "name": "",
          "type": "address"
        }
      ],
      "name": "whitelist",
      "outputs": [
        {
          "name": "",
          "type": "bool"
        }
      ],
      "payable": false,
      "stateMutability": "view",
      "type": "function"
    },
    {
      "constant": true,
      "inputs": [],
      "name": "tokensBoughtInBonusProgram",
      "outputs": [
        {
          "name": "",
          "type": "uint256"
        }
      ],
      "payable": false,
      "stateMutability": "view",
      "type": "function"
    },
    {
      "constant": true,
      "inputs": [],
      "name": "ETHEUR",
      "outputs": [
        {
          "name": "",
          "type": "string"
        }
      ],
      "payable": false,
      "stateMutability": "view",
      "type": "function"
    },
    {
      "constant": true,
      "inputs": [],
      "name": "INITIAL_BONUSLIST_TOKENS",
      "outputs": [
        {
          "name": "",
          "type": "uint256"
        }
      ],
      "payable": false,
      "stateMutability": "view",
      "type": "function"
    },
    {
      "constant": true,
      "inputs": [],
      "name": "earlybirdEnded",
      "outputs": [
        {
          "name": "",
          "type": "bool"
        }
      ],
      "payable": false,
      "stateMutability": "view",
      "type": "function"
    },
    {
      "constant": false,
      "inputs": [
        {
          "name": "_gasLimit",
          "type": "uint256"
        }
      ],
      "name": "changeGasLimit",
      "outputs": [],
      "payable": false,
      "stateMutability": "nonpayable",
      "type": "function"
    },
    {
      "constant": true,
      "inputs": [],
      "name": "finished",
      "outputs": [
        {
          "name": "",
          "type": "bool"
        }
      ],
      "payable": false,
      "stateMutability": "view",
      "type": "function"
    },
    {
      "constant": true,
      "inputs": [],
      "name": "bountyAddress",
      "outputs": [
        {
          "name": "",
          "type": "address"
        }
      ],
      "payable": false,
      "stateMutability": "view",
      "type": "function"
    },
    {
      "constant": true,
      "inputs": [
        {
          "name": "",
          "type": "bytes32"
        }
      ],
      "name": "ids",
      "outputs": [
        {
          "name": "",
          "type": "bool"
        }
      ],
      "payable": false,
      "stateMutability": "view",
      "type": "function"
    },
    {
      "constant": true,
      "inputs": [],
      "name": "investorCount",
      "outputs": [
        {
          "name": "",
          "type": "uint256"
        }
      ],
      "payable": false,
      "stateMutability": "view",
      "type": "function"
    },
    {
      "constant": true,
      "inputs": [],
      "name": "initialBonuslistTokens",
      "outputs": [
        {
          "name": "",
          "type": "uint256"
        }
      ],
      "payable": false,
      "stateMutability": "view",
      "type": "function"
    },
    {
      "constant": false,
      "inputs": [
        {
          "name": "_walletAddress",
          "type": "address"
        }
      ],
      "name": "setBountyWalletAddress",
      "outputs": [],
      "payable": false,
      "stateMutability": "nonpayable",
      "type": "function"
    },
    {
      "constant": true,
      "inputs": [],
      "name": "tokensBoughtInEarlybird",
      "outputs": [
        {
          "name": "",
          "type": "uint256"
        }
      ],
      "payable": false,
      "stateMutability": "view",
      "type": "function"
    },
    {
      "inputs": [
        {
          "name": "_contractName",
          "type": "string"
        },
        {
          "name": "_wallet",
          "type": "address"
        },
        {
          "name": "_bountyAddress",
          "type": "address"
        },
        {
          "name": "_btcTokenBoughtAddress",
          "type": "address"
        },
        {
          "name": "_whitelistingAddress",
          "type": "address"
        },
        {
          "name": "_priceCheckerAddress",
          "type": "address"
        },
        {
          "name": "_contractManager",
          "type": "address"
        },
        {
          "name": "_tokenContractName",
          "type": "string"
        },
        {
          "name": "_memberContractName",
          "type": "string"
        }
      ],
      "payable": true,
      "stateMutability": "payable",
      "type": "constructor"
    },
    {
      "payable": true,
      "stateMutability": "payable",
      "type": "fallback"
    },
    {
      "anonymous": false,
      "inputs": [
        {
          "indexed": true,
          "name": "_oldAddress",
          "type": "address"
        },
        {
          "indexed": true,
          "name": "_newAddress",
          "type": "address"
        }
      ],
      "name": "TokenAddressChanged",
      "type": "event"
    },
    {
      "anonymous": false,
      "inputs": [
        {
          "indexed": true,
          "name": "_oldAddress",
          "type": "address"
        },
        {
          "indexed": true,
          "name": "_newAddress",
          "type": "address"
        }
      ],
      "name": "WalletAddressChanged",
      "type": "event"
    },
    {
      "anonymous": false,
      "inputs": [
        {
          "indexed": true,
          "name": "_oldAddress",
          "type": "address"
        },
        {
          "indexed": true,
          "name": "_newAddress",
          "type": "address"
        }
      ],
      "name": "BtcTokenBoughtAddressChanged",
      "type": "event"
    },
    {
      "anonymous": false,
      "inputs": [
        {
          "indexed": true,
          "name": "_oldAddress",
          "type": "address"
        },
        {
          "indexed": true,
          "name": "_newAddress",
          "type": "address"
        }
      ],
      "name": "WhitelistingAddressChanged",
      "type": "event"
    },
    {
      "anonymous": false,
      "inputs": [
        {
          "indexed": true,
          "name": "_address",
          "type": "address"
        },
        {
          "indexed": false,
          "name": "_whitelisted",
          "type": "bool"
        }
      ],
      "name": "WhitelistChanged",
      "type": "event"
    },
    {
      "anonymous": false,
      "inputs": [],
      "name": "StartedSale",
      "type": "event"
    },
    {
      "anonymous": false,
      "inputs": [],
      "name": "FinishedSale",
      "type": "event"
    },
    {
      "anonymous": false,
      "inputs": [
        {
          "indexed": true,
          "name": "_buyer",
          "type": "address"
        },
        {
          "indexed": false,
          "name": "_tokens",
          "type": "uint256"
        }
      ],
      "name": "BoughtEarlyBird",
      "type": "event"
    },
    {
      "anonymous": false,
      "inputs": [
        {
          "indexed": true,
          "name": "_buyer",
          "type": "address"
        },
        {
          "indexed": false,
          "name": "_tokens",
          "type": "uint256"
        },
        {
          "indexed": false,
          "name": "_bonusTokens",
          "type": "uint256"
        }
      ],
      "name": "BoughtBonusProgram",
      "type": "event"
    },
    {
      "anonymous": false,
      "inputs": [
        {
          "indexed": false,
          "name": "_id",
          "type": "bytes32"
        },
        {
          "indexed": false,
          "name": "_price",
          "type": "string"
        }
      ],
      "name": "PriceUpdated",
      "type": "event"
    },
    {
      "anonymous": false,
      "inputs": [
        {
          "indexed": false,
          "name": "_id",
          "type": "bytes32"
        },
        {
          "indexed": false,
          "name": "_fees",
          "type": "uint256"
        }
      ],
      "name": "NewOraclizeQuery",
      "type": "event"
    },
    {
      "anonymous": false,
      "inputs": [
        {
          "indexed": false,
          "name": "_description",
          "type": "string"
        },
        {
          "indexed": false,
          "name": "_fees",
          "type": "uint256"
        }
      ],
      "name": "OraclizeQueryNotSend",
      "type": "event"
    },
    {
      "anonymous": false,
      "inputs": [
        {
          "indexed": true,
          "name": "_oldAddress",
          "type": "address"
        },
        {
          "indexed": true,
          "name": "_newAddress",
          "type": "address"
        }
      ],
      "name": "BountyWalletAddressChanged",
      "type": "event"
    },
    {
      "anonymous": false,
      "inputs": [
        {
          "indexed": true,
          "name": "_bountyReceiver",
          "type": "address"
        },
        {
          "indexed": false,
          "name": "_bountyTokens",
          "type": "uint256"
        }
      ],
      "name": "BountySend",
      "type": "event"
    },
    {
      "constant": false,
      "inputs": [
        {
          "name": "_walletAddress",
          "type": "address"
        }
      ],
      "name": "setWalletAddress",
      "outputs": [],
      "payable": false,
      "stateMutability": "nonpayable",
      "type": "function"
    },
    {
      "constant": false,
      "inputs": [
        {
          "name": "_address",
          "type": "address"
        }
      ],
      "name": "setBtcTokenBoughtAddress",
      "outputs": [],
      "payable": false,
      "stateMutability": "nonpayable",
      "type": "function"
    },
    {
      "constant": false,
      "inputs": [
        {
          "name": "_address",
          "type": "address"
        }
      ],
      "name": "setWhitelistingAddress",
      "outputs": [],
      "payable": false,
      "stateMutability": "nonpayable",
      "type": "function"
    },
    {
      "constant": false,
      "inputs": [
        {
          "name": "_address",
          "type": "address"
        },
        {
          "name": "_whitelisted",
          "type": "bool"
        }
      ],
      "name": "setWhitelistStatus",
      "outputs": [],
      "payable": false,
      "stateMutability": "nonpayable",
      "type": "function"
    },
    {
      "constant": false,
      "inputs": [
        {
          "name": "_address",
          "type": "address"
        }
      ],
      "name": "getWhitelistStatus",
      "outputs": [
        {
          "name": "_whitelisted",
          "type": "bool"
        }
      ],
      "payable": false,
      "stateMutability": "nonpayable",
      "type": "function"
    },
    {
      "constant": true,
      "inputs": [
        {
          "name": "_weiAmount",
          "type": "uint256"
        }
      ],
      "name": "getAmountFida",
      "outputs": [
        {
          "name": "_fidaAmount",
          "type": "uint256"
        }
      ],
      "payable": false,
      "stateMutability": "view",
      "type": "function"
    },
    {
      "constant": false,
      "inputs": [
        {
          "name": "_beneficiary",
          "type": "address"
        }
      ],
      "name": "buyTokens",
      "outputs": [],
      "payable": true,
      "stateMutability": "payable",
      "type": "function"
    },
    {
      "constant": false,
      "inputs": [
        {
          "name": "_beneficiary",
          "type": "address"
        },
        {
          "name": "_tokens",
          "type": "uint256"
        }
      ],
      "name": "tokensBoughtWithBTC",
      "outputs": [],
      "payable": true,
      "stateMutability": "payable",
      "type": "function"
    },
    {
      "constant": false,
      "inputs": [],
      "name": "startSale",
      "outputs": [],
      "payable": false,
      "stateMutability": "nonpayable",
      "type": "function"
    },
    {
      "constant": false,
      "inputs": [],
      "name": "finishedSale",
      "outputs": [],
      "payable": false,
      "stateMutability": "nonpayable",
      "type": "function"
    }
  ],
  "bytecode": "0x60006001556934f086f3b33b68400000600381905560045560c0604052600960808190527f3537312e3835303030000000000000000000000000000000000000000000000060a09081526200005891600e91906200153f565b5063036892e8600f5561e4e66011556012601a556a0c685fa11e01ec6f000000601f556a0422ca8b0a00a42500000060205560006021556022805463ffffffff1916905560405162004593388190039081908339810160409081528151602080840151928401516060850151608086015160a087015160c088015160e08901516101008a0151601f54600055978a018051909a9698959794969395929491840193929092019185918b918a918291889162000119916005918701906200153f565b5060028054600160a060020a0319908116600160a060020a039586161790915560078054821693851693909317909255600680548316918416919091179055600d8054909116918416919091179055506200017c64010000000062000403810204565b508851620001929060169060208c01906200153f565b5060128054600160a060020a0319908116600160a060020a038b8116919091179092556013805482168984161790556014805482168884161790556015805490911685831617908190556040517f35817773000000000000000000000000000000000000000000000000000000008152602060048201818152865160248401528651620002dd959490941693633581777393889383926044909201919085019080838360005b838110156200025257818101518382015260200162000238565b50505050905090810190601f168015620002805780820380516001836020036101000a031916815260200191505b5092505050602060405180830381600087803b158015620002a057600080fd5b505af1158015620002b5573d6000803e3d6000fd5b505050506040513d6020811015620002cc57600080fd5b5051640100000000620006ea810204565b6015546040517f35817773000000000000000000000000000000000000000000000000000000008152602060048201818152845160248401528451600160a060020a0390941693633581777393869383926044909201919085019080838360005b83811015620003585781810151838201526020016200033e565b50505050905090810190601f168015620003865780820380516001836020036101000a031916815260200191505b5092505050602060405180830381600087803b158015620003a657600080fd5b505af1158015620003bb573d6000803e3d6000fd5b505050506040513d6020811015620003d257600080fd5b5051601b8054600160a060020a031916600160a060020a0390921691909117905550620015e1975050505050505050565b600030600160a060020a031631620004626040805190810160405280600381526020017f55524c00000000000000000000000000000000000000000000000000000000008152506011546200076c640100000000026401000000009004565b111562000570577f3cc796735354d9bb4604eeb9a6d0323a88e66a6c6fd67a5b2b49ea5846b1b747620004d96040805190810160405280600381526020017f55524c000000000000000000000000000000000000000000000000000000000081525062000a34640100000000026401000000009004565b604080516020810192909252808252604b828201527f4f7261636c697a6520717565727920776173204e4f542073656e742c20706c6560608301527f6173652061646420736f6d652045544820746f20636f76657220666f7220746860808301527f652071756572792066656500000000000000000000000000000000000000000060a0830152519081900360c00190a1620006e7565b620006456040805190810160405280600381526020017f55524c0000000000000000000000000000000000000000000000000000000000815250608060405190810160405280604d81526020017f6a736f6e2868747470733a2f2f6170692e6b72616b656e2e636f6d2f302f707581526020017f626c69632f5469636b65723f706169723d455448455552292e726573756c742e81526020017f584554485a4555522e615b305d0000000000000000000000000000000000000081525060115462000cf3640100000000026401000000009004565b600081815260106020908152604091829020805460ff191660011790558151808301909252600382527f55524c0000000000000000000000000000000000000000000000000000000000908201529091507fb6826b9da99334b1afae1d80ff40054e6e5e2605f0d9626cf120f65c2f5091c9908290620006ce9064010000000062000a34810204565b6040805192835260208301919091528051918290030190a15b50565b6000600160a060020a03821615156200070257600080fd5b5060198054600160a060020a03838116600160a060020a03198084168217909455601780548516821790556018805490941681179093556040519116919082907f5527f14e7199c63a0d6caffa1fd8eab9a6e595207bc2b23ae26a028acde7eefa90600090a35050565b600854600090600160a060020a03161580620007a55750600854620007a390600160a060020a03166401000000006200115a810204565b155b15620007c257620007c060006401000000006200115e810204565b505b600860009054906101000a9004600160a060020a0316600160a060020a03166338cc48316040518163ffffffff167c0100000000000000000000000000000000000000000000000000000000028152600401602060405180830381600087803b1580156200082f57600080fd5b505af115801562000844573d6000803e3d6000fd5b505050506040513d60208110156200085b57600080fd5b5051600954600160a060020a039081169116146200092e57600860009054906101000a9004600160a060020a0316600160a060020a03166338cc48316040518163ffffffff167c0100000000000000000000000000000000000000000000000000000000028152600401602060405180830381600087803b158015620008e057600080fd5b505af1158015620008f5573d6000803e3d6000fd5b505050506040513d60208110156200090c57600080fd5b505160098054600160a060020a031916600160a060020a039092169190911790555b600954604080517f2ef3accc0000000000000000000000000000000000000000000000000000000081526024810185905260048101918252855160448201528551600160a060020a0390931692632ef3accc9287928792829160640190602086019080838360005b83811015620009b057818101518382015260200162000996565b50505050905090810190601f168015620009de5780820380516001836020036101000a031916815260200191505b509350505050602060405180830381600087803b158015620009ff57600080fd5b505af115801562000a14573d6000803e3d6000fd5b505050506040513d602081101562000a2b57600080fd5b50519392505050565b600854600090600160a060020a0316158062000a6d575060085462000a6b90600160a060020a03166401000000006200115a810204565b155b1562000a8a5762000a8860006401000000006200115e810204565b505b600860009054906101000a9004600160a060020a0316600160a060020a03166338cc48316040518163ffffffff167c0100000000000000000000000000000000000000000000000000000000028152600401602060405180830381600087803b15801562000af757600080fd5b505af115801562000b0c573d6000803e3d6000fd5b505050506040513d602081101562000b2357600080fd5b5051600954600160a060020a0390811691161462000bf657600860009054906101000a9004600160a060020a0316600160a060020a03166338cc48316040518163ffffffff167c0100000000000000000000000000000000000000000000000000000000028152600401602060405180830381600087803b15801562000ba857600080fd5b505af115801562000bbd573d6000803e3d6000fd5b505050506040513d602081101562000bd457600080fd5b505160098054600160a060020a031916600160a060020a039092169190911790555b6009546040517f524f3889000000000000000000000000000000000000000000000000000000008152602060048201818152855160248401528551600160a060020a039094169363524f388993879383926044909201919085019080838360005b8381101562000c7157818101518382015260200162000c57565b50505050905090810190601f16801562000c9f5780820380516001836020036101000a031916815260200191505b5092505050602060405180830381600087803b15801562000cbf57600080fd5b505af115801562000cd4573d6000803e3d6000fd5b505050506040513d602081101562000ceb57600080fd5b505192915050565b6008546000908190600160a060020a0316158062000d2e575060085462000d2c90600160a060020a03166401000000006200115a810204565b155b1562000d4b5762000d4960006401000000006200115e810204565b505b600860009054906101000a9004600160a060020a0316600160a060020a03166338cc48316040518163ffffffff167c0100000000000000000000000000000000000000000000000000000000028152600401602060405180830381600087803b15801562000db857600080fd5b505af115801562000dcd573d6000803e3d6000fd5b505050506040513d602081101562000de457600080fd5b5051600954600160a060020a0390811691161462000eb757600860009054906101000a9004600160a060020a0316600160a060020a03166338cc48316040518163ffffffff167c0100000000000000000000000000000000000000000000000000000000028152600401602060405180830381600087803b15801562000e6957600080fd5b505af115801562000e7e573d6000803e3d6000fd5b505050506040513d602081101562000e9557600080fd5b505160098054600160a060020a031916600160a060020a039092169190911790555b600954604080517f2ef3accc0000000000000000000000000000000000000000000000000000000081526024810186905260048101918252875160448201528751600160a060020a0390931692632ef3accc9289928892829160640190602086019080838360005b8381101562000f3957818101518382015260200162000f1f565b50505050905090810190601f16801562000f675780820380516001836020036101000a031916815260200191505b509350505050602060405180830381600087803b15801562000f8857600080fd5b505af115801562000f9d573d6000803e3d6000fd5b505050506040513d602081101562000fb457600080fd5b50519050670de0b6b3a76400003a84020181111562000fd7576000915062001152565b6009546040517fc51be90f00000000000000000000000000000000000000000000000000000000815260006004820181815260648301879052608060248401908152895160848501528951600160a060020a039095169463c51be90f948794938c938c938c93604481019160a49091019060208801908083838c5b838110156200106c57818101518382015260200162001052565b50505050905090810190601f1680156200109a5780820380516001836020036101000a031916815260200191505b50838103825285518152855160209182019187019080838360005b83811015620010cf578181015183820152602001620010b5565b50505050905090810190601f168015620010fd5780820380516001836020036101000a031916815260200191505b5096505050505050506020604051808303818588803b1580156200112057600080fd5b505af115801562001135573d6000803e3d6000fd5b50505050506040513d60208110156200114d57600080fd5b505191505b509392505050565b3b90565b60006200117364010000000062001179810204565b92915050565b600080620011a4731d3b2638a7cc9f2cb3d298a3da7a90b67e5506ed6401000000006200115a810204565b1115620012225760088054600160a060020a031916731d3b2638a7cc9f2cb3d298a3da7a90b67e5506ed17905560408051808201909152600b81527f6574685f6d61696e6e65740000000000000000000000000000000000000000006020820152620012199064010000000062001526810204565b50600162001523565b60006200124c73c03a2615d5efaf5f49f60b7bb6583eaec212fdf16401000000006200115a810204565b1115620012c15760088054600160a060020a03191673c03a2615d5efaf5f49f60b7bb6583eaec212fdf117905560408051808201909152600c81527f6574685f726f707374656e3300000000000000000000000000000000000000006020820152620012199064010000000062001526810204565b6000620012eb73b7a07bcf2ba2f2703b24c0691b5278999c59ac7e6401000000006200115a810204565b1115620013605760088054600160a060020a03191673b7a07bcf2ba2f2703b24c0691b5278999c59ac7e17905560408051808201909152600981527f6574685f6b6f76616e00000000000000000000000000000000000000000000006020820152620012199064010000000062001526810204565b60006200138a73146500cfd35b22e4a392fe0adc06de1a1368ed486401000000006200115a810204565b1115620013ff5760088054600160a060020a03191673146500cfd35b22e4a392fe0adc06de1a1368ed4817905560408051808201909152600b81527f6574685f72696e6b6562790000000000000000000000000000000000000000006020820152620012199064010000000062001526810204565b600062001429736f485c8bf6fc43ea212e93bbf8ce046c7f1cb4756401000000006200115a810204565b11156200145f575060088054600160a060020a031916736f485c8bf6fc43ea212e93bbf8ce046c7f1cb475179055600162001523565b6000620014897320e12a1f859b3feae5fb2a0a32c18f5a65555bbf6401000000006200115a810204565b1115620014bf575060088054600160a060020a0319167320e12a1f859b3feae5fb2a0a32c18f5a65555bbf179055600162001523565b6000620014e97351efaf4c8b3c9afbd5ab9f4bbc82784ab6ef8faa6401000000006200115a810204565b11156200151f575060088054600160a060020a0319167351efaf4c8b3c9afbd5ab9f4bbc82784ab6ef8faa179055600162001523565b5060005b90565b80516200153b90600a9060208401906200153f565b5050565b828054600181600116156101000203166002900490600052602060002090601f016020900481019282601f106200158257805160ff1916838001178555620015b2565b82800160010185558215620015b2579182015b82811115620015b257825182559160200191906001019062001595565b50620015c0929150620015c4565b5090565b6200152391905b80821115620015c05760008155600101620015cb565b612fa280620015f16000396000f3006080604052600436106101be5763ffffffff60e060020a600035041663031adff081146101c9578063050c8803146101fa5780630c424284146102245780631769511c1461024a5780631f2698ab1461025f57806323cba56f1461028857806327dc297e1461029d5780632e0f2625146102fb57806337ae67f51461031057806338bbfa5014610334578063521eb273146103d057806358932f50146103e55780636518f80d146103fa578063673a7e281461041b57806367863c07146104235780636f7bc9be146104385780638431714314610459578063957b52fb1461046e5780639b19251a14610483578063a043bb16146104a4578063a3d646fe146104b9578063a445dc5a14610543578063a6b05af61461055a578063a7fdb4f51461056f578063a891fdc314610584578063ac1a386a14610599578063b66a0e5d146105ba578063baf539ee146105cf578063bef4876b146105e7578063c516358f146105fc578063cf7b4a0914610611578063d7e64c0014610629578063d9ba32fc1461063e578063e3aa3c6e1461065f578063ec8ac4d814610674578063ee3fe98114610688578063f268225c146106a9578063f8ac6570146106ca575b6101c7336106df565b005b3480156101d557600080fd5b506101de61089b565b60408051600160a060020a039092168252519081900360200190f35b34801561020657600080fd5b506102126004356108aa565b60408051918252519081900360200190f35b34801561023057600080fd5b506101c7600160a060020a036004351660243515156108e6565b34801561025657600080fd5b506101de61098d565b34801561026b57600080fd5b5061027461099c565b604080519115158252519081900360200190f35b34801561029457600080fd5b506102746109ab565b3480156102a957600080fd5b5060408051602060046024803582810135601f81018590048502860185019096528585526101c79583359536956044949193909101919081908401838280828437509497506109b49650505050505050565b34801561030757600080fd5b50610212610ac4565b34801561031c57600080fd5b506101c7600435600160a060020a0360243516610aca565b34801561034057600080fd5b5060408051602060046024803582810135601f81018590048502860185019096528585526101c795833595369560449491939091019190819084018382808284375050604080516020601f89358b018035918201839004830284018301909452808352979a9998810197919650918201945092508291508401838280828437509497506108969650505050505050565b3480156103dc57600080fd5b506101de610b8a565b3480156103f157600080fd5b506101de610b99565b34801561040657600080fd5b506101c7600160a060020a0360043516610ba8565b6101c7610d36565b34801561042f57600080fd5b506101de610d5b565b34801561044457600080fd5b50610212600160a060020a0360043516610d6a565b34801561046557600080fd5b50610212610d7c565b34801561047a57600080fd5b50610212610d82565b34801561048f57600080fd5b50610274600160a060020a0360043516610d88565b3480156104b057600080fd5b50610212610d9d565b3480156104c557600080fd5b506104ce610da3565b6040805160208082528351818301528351919283929083019185019080838360005b838110156105085781810151838201526020016104f0565b50505050905090810190601f1680156105355780820380516001836020036101000a031916815260200191505b509250505060405180910390f35b6101c7600160a060020a0360043516602435610e31565b34801561056657600080fd5b50610212610f90565b34801561057b57600080fd5b506101c7610f96565b34801561059057600080fd5b50610274611108565b3480156105a557600080fd5b506101c7600160a060020a0360043516611116565b3480156105c657600080fd5b506101c76112a4565b3480156105db57600080fd5b506101c7600435611413565b3480156105f357600080fd5b50610274611433565b34801561060857600080fd5b506101de611443565b34801561061d57600080fd5b50610274600435611452565b34801561063557600080fd5b50610212611467565b34801561064a57600080fd5b50610274600160a060020a036004351661146d565b34801561066b57600080fd5b506102126114aa565b6101c7600160a060020a03600435166106df565b34801561069457600080fd5b506101c7600160a060020a03600435166114b0565b3480156106b557600080fd5b506101c7600160a060020a036004351661163e565b3480156106d657600080fd5b506102126117cc565b60225460009062010000900460ff1615156106f957600080fd5b6022546301000000900460ff161561071057600080fd5b600160a060020a038216151561072557600080fd5b34151561073157600080fd5b600160a060020a0333166000908152601d602052604090205460ff1680156107715750600160a060020a0382166000908152601d602052604090205460ff165b151561077c57600080fd5b601a54600a0a630179a7b002601760009054906101000a9004600160a060020a0316600160a060020a03166318160ddd6040518163ffffffff1660e060020a028152600401602060405180830381600087803b1580156107db57600080fd5b505af11580156107ef573d6000803e3d6000fd5b505050506040513d602081101561080557600080fd5b50511061081157600080fd5b61081a346108aa565b9050601a54600a0a603202811015151561083357600080fd5b602254610100900460ff1615156108535761084e82826117d2565b61085d565b61085d82826118d5565b601254604051600160a060020a03909116903480156108fc02916000818181858888f19350505050158015610896573d6000803e3d6000fd5b505050565b601454600160a060020a031681565b60008115156108b857600080fd5b6108e0620186a06108d4600f548561197b90919063ffffffff16565b9063ffffffff6119b116565b92915050565b60145433600160a060020a0390811691161461090157600080fd5b600160a060020a0382166000908152601d602052604090205460ff161515811515141561092d57600080fd5b600160a060020a0382166000818152601d6020908152604091829020805460ff1916851515908117909155825190815291517fb840a1dbd8b09a3dc45161bba92dfb9aba643c0e44c085a447f839d1d02cf13b9281900390910190a25050565b601954600160a060020a031681565b60225462010000900460ff1681565b60225460ff1681565b6109bc6119c8565b600160a060020a031633600160a060020a03161415156109db57600080fd5b60008281526010602052604090205460ff1615156001146109fb57600080fd5b8051610a0e90600e906020840190612ea0565b50610a1a816005611bbe565b600f5560408051838152602080820183815284519383019390935283517f0ca598019410e2cf468f2525ac5844c86b6c9273e0f125dbe7e550ad5e7064de93869386939092606084019185019080838360005b83811015610a85578181015183820152602001610a6d565b50505050905090810190601f168015610ab25780820380516001836020036101000a031916815260200191505b50935050505060405180910390a15050565b601a5481565b60025433600160a060020a03908116911614610ae557600080fd5b600454610af8908363ffffffff611d7816565b6004908155600754604080517ff3cd543f000000000000000000000000000000000000000000000000000000008152600160a060020a0385811694820194909452602481018690529051929091169163f3cd543f9160448082019260009290919082900301818387803b158015610b6e57600080fd5b505af1158015610b82573d6000803e3d6000fd5b505050505050565b601254600160a060020a031681565b601354600160a060020a031681565b6015546040805160e160020a634322bb81028152600160a060020a0333818116602484015260048301938452601680546002610100600183161502600019019091160460448501819052600096939093169463864577029491939091829160649091019085908015610c5b5780601f10610c3057610100808354040283529160200191610c5b565b820191906000526020600020905b815481529060010190602001808311610c3e57829003601f168201915b50509350505050602060405180830381600087803b158015610c7c57600080fd5b505af1158015610c90573d6000803e3d6000fd5b505050506040513d6020811015610ca657600080fd5b50511515610cb357600080fd5b600160a060020a0382161515610cc857600080fd5b601454600160a060020a0383811691161415610ce357600080fd5b5060148054600160a060020a03838116600160a060020a0319831681179093556040519116919082907f6455b018bac74e43e4def224b38cab76bd0b877de290bae02a2612ef45f6a24490600090a35050565b600d5433600160a060020a03908116911614610d5157600080fd5b610d59611d8a565b565b601b54600160a060020a031681565b601e6020526000908152604090205481565b60205481565b600f5481565b601d6020526000908152604090205460ff1681565b60015481565b600e805460408051602060026001851615610100026000190190941693909304601f81018490048402820184019092528181529291830182828015610e295780601f10610dfe57610100808354040283529160200191610e29565b820191906000526020600020905b815481529060010190602001808311610e0c57829003601f168201915b505050505081565b60135433600160a060020a03908116911614610e4c57600080fd5b60225462010000900460ff161515610e6357600080fd5b6022546301000000900460ff1615610e7a57600080fd5b600160a060020a0382161515610e8f57600080fd5b600160a060020a0382166000908152601d602052604090205460ff161515610eb657600080fd5b601a54600a0a630179a7b002601760009054906101000a9004600160a060020a0316600160a060020a03166318160ddd6040518163ffffffff1660e060020a028152600401602060405180830381600087803b158015610f1557600080fd5b505af1158015610f29573d6000803e3d6000fd5b505050506040513d6020811015610f3f57600080fd5b505110610f4b57600080fd5b601a54600a0a6032028110151515610f6257600080fd5b602254610100900460ff161515610f8257610f7d82826117d2565b610f8c565b610f8c82826118d5565b5050565b601f5481565b6015546040805160e160020a634322bb8102815233600160a060020a03818116602484015260048301938452601680546002600019600183161561010002019091160460448501819052919095169463864577029490939091829160640190859080156110445780601f1061101957610100808354040283529160200191611044565b820191906000526020600020905b81548152906001019060200180831161102757829003601f168201915b50509350505050602060405180830381600087803b15801561106557600080fd5b505af1158015611079573d6000803e3d6000fd5b505050506040513d602081101561108f57600080fd5b5051151561109c57600080fd5b60225462010000900460ff1615156110b357600080fd5b6022546301000000900460ff16156110ca57600080fd5b6022805463ff000000191663010000001790556040517f85541896897869bcc1db9236a9c6e202f6081852e4236b6c8802a64e31193f0890600090a1565b602254610100900460ff1681565b6015546040805160e160020a634322bb81028152600160a060020a03338181166024840152600483019384526016805460026101006001831615026000190190911604604485018190526000969390931694638645770294919390918291606490910190859080156111c95780601f1061119e576101008083540402835291602001916111c9565b820191906000526020600020905b8154815290600101906020018083116111ac57829003601f168201915b50509350505050602060405180830381600087803b1580156111ea57600080fd5b505af11580156111fe573d6000803e3d6000fd5b505050506040513d602081101561121457600080fd5b5051151561122157600080fd5b600160a060020a038216151561123657600080fd5b601254600160a060020a038381169116141561125157600080fd5b5060128054600160a060020a03838116600160a060020a0319831681179093556040519116919082907f5555e92e6e43fa030c858b58d55eb7229f493a44dc66f35b2eec1ac27da6450a90600090a35050565b6015546040805160e160020a634322bb8102815233600160a060020a03818116602484015260048301938452601680546002600019600183161561010002019091160460448501819052919095169463864577029490939091829160640190859080156113525780601f1061132757610100808354040283529160200191611352565b820191906000526020600020905b81548152906001019060200180831161133557829003601f168201915b50509350505050602060405180830381600087803b15801561137357600080fd5b505af1158015611387573d6000803e3d6000fd5b505050506040513d602081101561139d57600080fd5b505115156113aa57600080fd5b60225462010000900460ff16156113c057600080fd5b6022546301000000900460ff16156113d757600080fd5b6022805462ff00001916620100001790556040517fcb0939d2b1d5253fbbfa73e4ed75ac4ab67cb85168b6c84f3cc45f81aa728eff90600090a1565b600d5433600160a060020a0390811691161461142e57600080fd5b601155565b6022546301000000900460ff1681565b600254600160a060020a031681565b60106020526000908152604090205460ff1681565b601c5481565b60145460009033600160a060020a0390811691161461148b57600080fd5b50600160a060020a03166000908152601d602052604090205460ff1690565b60005481565b6015546040805160e160020a634322bb81028152600160a060020a03338181166024840152600483019384526016805460026101006001831615026000190190911604604485018190526000969390931694638645770294919390918291606490910190859080156115635780601f1061153857610100808354040283529160200191611563565b820191906000526020600020905b81548152906001019060200180831161154657829003601f168201915b50509350505050602060405180830381600087803b15801561158457600080fd5b505af1158015611598573d6000803e3d6000fd5b505050506040513d60208110156115ae57600080fd5b505115156115bb57600080fd5b600160a060020a03821615156115d057600080fd5b601354600160a060020a03838116911614156115eb57600080fd5b5060138054600160a060020a03838116600160a060020a0319831681179093556040519116919082907fb94a8bd02df34800535195c64f753d64cf36e8c07c353aed08f31d271037d7b090600090a35050565b6006546040805160e160020a634322bb81028152600160a060020a03338181166024840152600483019384526005805460026101006001831615026000190190911604604485018190526000969390931694638645770294919390918291606490910190859080156116f15780601f106116c6576101008083540402835291602001916116f1565b820191906000526020600020905b8154815290600101906020018083116116d457829003601f168201915b50509350505050602060405180830381600087803b15801561171257600080fd5b505af1158015611726573d6000803e3d6000fd5b505050506040513d602081101561173c57600080fd5b5051151561174957600080fd5b600160a060020a038216151561175e57600080fd5b600254600160a060020a038381169116141561177957600080fd5b5060028054600160a060020a03838116600160a060020a0319831681179093556040519116919082907fc857c2d0b05db739b2739397411afc2ce5fd0b5f413970588f5309ad4b23189190600090a35050565b60215481565b6021546117e5908263ffffffff611fd516565b602155601b54604080517fc592c3ba000000000000000000000000000000000000000000000000000000008152600160a060020a038581166004830152602482018590529151919092169163c592c3ba91604480830192600092919082900301818387803b15801561185657600080fd5b505af115801561186a573d6000803e3d6000fd5b505050506118788282611fe4565b604080518281529051600160a060020a038416917fde041d839ffa073f9c6cde04dac0b63cd47bd33be44a99791bcac7d49806a80e919081900360200190a260205460215410610f8c576022805461ff0019166101001790555050565b6000806118e4836001546120c2565b91506118f6838363ffffffff611fd516565b60015490915061190c908463ffffffff611fd516565b6001556119198482611fe4565b60408051848152602081018490528151600160a060020a038716927ff1434fd57f5b24a13f7759e16bc78810c2318f43e8c8a047a38da4b0157bd397928290030190a2601f5460015410611975576022805460ff191660011790555b50505050565b60008083151561198e57600091506119aa565b5082820282848281151561199e57fe5b04146119a657fe5b8091505b5092915050565b60008082848115156119bf57fe5b04949350505050565b600854600090600160a060020a031615806119f557506008546119f390600160a060020a0316612265565b155b15611a0657611a046000612269565b505b600860009054906101000a9004600160a060020a0316600160a060020a03166338cc48316040518163ffffffff1660e060020a028152600401602060405180830381600087803b158015611a5957600080fd5b505af1158015611a6d573d6000803e3d6000fd5b505050506040513d6020811015611a8357600080fd5b5051600954600160a060020a03908116911614611b3957600860009054906101000a9004600160a060020a0316600160a060020a03166338cc48316040518163ffffffff1660e060020a028152600401602060405180830381600087803b158015611aed57600080fd5b505af1158015611b01573d6000803e3d6000fd5b505050506040513d6020811015611b1757600080fd5b505160098054600160a060020a031916600160a060020a039092169190911790555b600960009054906101000a9004600160a060020a0316600160a060020a031663c281d19e6040518163ffffffff1660e060020a028152600401602060405180830381600087803b158015611b8c57600080fd5b505af1158015611ba0573d6000803e3d6000fd5b505050506040513d6020811015611bb657600080fd5b505190505b90565b6000828180805b8351811015611d5b5783517f300000000000000000000000000000000000000000000000000000000000000090859083908110611bfe57fe5b90602001015160f860020a900460f860020a027effffffffffffffffffffffffffffffffffffffffffffffffffffffffffffff191610158015611ca4575083517f390000000000000000000000000000000000000000000000000000000000000090859083908110611c6c57fe5b90602001015160f860020a900460f860020a027effffffffffffffffffffffffffffffffffffffffffffffffffffffffffffff191611155b15611cfd578115611cc357851515611cbb57611d5b565b600019909501945b600a8302925060308482815181101515611cd957fe5b90602001015160f860020a900460f860020a0260f860020a90040383019250611d53565b8381815181101515611d0b57fe5b90602001015160f860020a900460f860020a027effffffffffffffffffffffffffffffffffffffffffffffffffffffffffffff1916602e60f860020a021415611d5357600191505b600101611bc5565b6000861115611d6d5785600a0a830292505b509095945050505050565b600082821115611d8457fe5b50900390565b600030600160a060020a031631611dc160408051908101604052806003815260200160ea60020a6215549302815250601154612273565b1115611ea5577f3cc796735354d9bb4604eeb9a6d0323a88e66a6c6fd67a5b2b49ea5846b1b747611e0f60408051908101604052806003815260200160ea60020a62155493028152506124e4565b604080516020810192909252808252604b828201527f4f7261636c697a6520717565727920776173204e4f542073656e742c20706c6560608301527f6173652061646420736f6d652045544820746f20636f76657220666f7220746860808301527f652071756572792066656500000000000000000000000000000000000000000060a0830152519081900360c00190a1611fd2565b611f5260408051908101604052806003815260200160ea60020a6215549302815250608060405190810160405280604d81526020017f6a736f6e2868747470733a2f2f6170692e6b72616b656e2e636f6d2f302f707581526020017f626c69632f5469636b65723f706169723d455448455552292e726573756c742e81526020017f584554485a4555522e615b305d0000000000000000000000000000000000000081525060115461274c565b600081815260106020908152604091829020805460ff1916600117905581518083019092526003825260ea60020a6215549302908201529091507fb6826b9da99334b1afae1d80ff40054e6e5e2605f0d9626cf120f65c2f5091c9908290611fb9906124e4565b6040805192835260208301919091528051918290030190a15b50565b6000828201838110156119a657fe5b801515611ff057600080fd5b600160a060020a0382166000908152601e6020526040902054151561201957601c805460010190555b600160a060020a0382166000908152601e6020526040902054612042908263ffffffff611fd516565b600160a060020a038084166000818152601e60205260408082209490945560185484517ff3cd543f0000000000000000000000000000000000000000000000000000000081526004810193909352602483018690529351939092169263f3cd543f9260448084019391929182900301818387803b158015610b6e57600080fd5b6000806120cd612f1e565b6120d5612f3d565b60009250828080806a0c685fa11e01ec6f0000008911156120f857869750612258565b60408051608081810183526096825260646020808401919091526032838501526019606080850191909152845160a08101865260008082526a0211654585005212800000938201939093526a0422ca8b0a00a425000000958101959095526a084595161401484a000000908501526a0c685fa11e01ec6f0000009184019190915290975090955093505b60008a118015612195575060048460ff16105b15612254578460ff8516600581106121a957fe5b602002015192508460ff6001860116600581106121c257fe5b602002015191508289101580156121d857508189105b15612249576121e98a8a8403612b51565b90506122226103e88760ff87166004811061220057fe5b602002015160ff16830281151561221357fe5b8991900463ffffffff611fd516565b96506122348a8263ffffffff611d7816565b9950612246898263ffffffff611fd516565b98505b836001019350612182565b8697505b5050505050505092915050565b3b90565b60006108e0612b69565b600854600090600160a060020a031615806122a0575060085461229e90600160a060020a0316612265565b155b156122b1576122af6000612269565b505b600860009054906101000a9004600160a060020a0316600160a060020a03166338cc48316040518163ffffffff1660e060020a028152600401602060405180830381600087803b15801561230457600080fd5b505af1158015612318573d6000803e3d6000fd5b505050506040513d602081101561232e57600080fd5b5051600954600160a060020a039081169116146123e457600860009054906101000a9004600160a060020a0316600160a060020a03166338cc48316040518163ffffffff1660e060020a028152600401602060405180830381600087803b15801561239857600080fd5b505af11580156123ac573d6000803e3d6000fd5b505050506040513d60208110156123c257600080fd5b505160098054600160a060020a031916600160a060020a039092169190911790555b600954604080517f2ef3accc0000000000000000000000000000000000000000000000000000000081526024810185905260048101918252855160448201528551600160a060020a0390931692632ef3accc9287928792829160640190602086019080838360005b8381101561246457818101518382015260200161244c565b50505050905090810190601f1680156124915780820380516001836020036101000a031916815260200191505b509350505050602060405180830381600087803b1580156124b157600080fd5b505af11580156124c5573d6000803e3d6000fd5b505050506040513d60208110156124db57600080fd5b50519392505050565b600854600090600160a060020a03161580612511575060085461250f90600160a060020a0316612265565b155b15612522576125206000612269565b505b600860009054906101000a9004600160a060020a0316600160a060020a03166338cc48316040518163ffffffff1660e060020a028152600401602060405180830381600087803b15801561257557600080fd5b505af1158015612589573d6000803e3d6000fd5b505050506040513d602081101561259f57600080fd5b5051600954600160a060020a0390811691161461265557600860009054906101000a9004600160a060020a0316600160a060020a03166338cc48316040518163ffffffff1660e060020a028152600401602060405180830381600087803b15801561260957600080fd5b505af115801561261d573d6000803e3d6000fd5b505050506040513d602081101561263357600080fd5b505160098054600160a060020a031916600160a060020a039092169190911790555b6009546040517f524f3889000000000000000000000000000000000000000000000000000000008152602060048201818152855160248401528551600160a060020a039094169363524f388993879383926044909201919085019080838360005b838110156126ce5781810151838201526020016126b6565b50505050905090810190601f1680156126fb5780820380516001836020036101000a031916815260200191505b5092505050602060405180830381600087803b15801561271a57600080fd5b505af115801561272e573d6000803e3d6000fd5b505050506040513d602081101561274457600080fd5b505192915050565b6008546000908190600160a060020a0316158061277b575060085461277990600160a060020a0316612265565b155b1561278c5761278a6000612269565b505b600860009054906101000a9004600160a060020a0316600160a060020a03166338cc48316040518163ffffffff1660e060020a028152600401602060405180830381600087803b1580156127df57600080fd5b505af11580156127f3573d6000803e3d6000fd5b505050506040513d602081101561280957600080fd5b5051600954600160a060020a039081169116146128bf57600860009054906101000a9004600160a060020a0316600160a060020a03166338cc48316040518163ffffffff1660e060020a028152600401602060405180830381600087803b15801561287357600080fd5b505af1158015612887573d6000803e3d6000fd5b505050506040513d602081101561289d57600080fd5b505160098054600160a060020a031916600160a060020a039092169190911790555b600954604080517f2ef3accc0000000000000000000000000000000000000000000000000000000081526024810186905260048101918252875160448201528751600160a060020a0390931692632ef3accc9289928892829160640190602086019080838360005b8381101561293f578181015183820152602001612927565b50505050905090810190601f16801561296c5780820380516001836020036101000a031916815260200191505b509350505050602060405180830381600087803b15801561298c57600080fd5b505af11580156129a0573d6000803e3d6000fd5b505050506040513d60208110156129b657600080fd5b50519050670de0b6b3a76400003a8402018111156129d75760009150612b49565b6009546040517fc51be90f00000000000000000000000000000000000000000000000000000000815260006004820181815260648301879052608060248401908152895160848501528951600160a060020a039095169463c51be90f948794938c938c938c93604481019160a49091019060208801908083838c5b83811015612a6a578181015183820152602001612a52565b50505050905090810190601f168015612a975780820380516001836020036101000a031916815260200191505b50838103825285518152855160209182019187019080838360005b83811015612aca578181015183820152602001612ab2565b50505050905090810190601f168015612af75780820380516001836020036101000a031916815260200191505b5096505050505050506020604051808303818588803b158015612b1957600080fd5b505af1158015612b2d573d6000803e3d6000fd5b50505050506040513d6020811015612b4457600080fd5b505191505b509392505050565b6000818310612b605781612b62565b825b9392505050565b600080612b89731d3b2638a7cc9f2cb3d298a3da7a90b67e5506ed612265565b1115612bfa5760088054600160a060020a031916731d3b2638a7cc9f2cb3d298a3da7a90b67e5506ed17905560408051808201909152600b81527f6574685f6d61696e6e65740000000000000000000000000000000000000000006020820152612bf290612e91565b506001611bbb565b6000612c1973c03a2615d5efaf5f49f60b7bb6583eaec212fdf1612265565b1115612c825760088054600160a060020a03191673c03a2615d5efaf5f49f60b7bb6583eaec212fdf117905560408051808201909152600c81527f6574685f726f707374656e3300000000000000000000000000000000000000006020820152612bf290612e91565b6000612ca173b7a07bcf2ba2f2703b24c0691b5278999c59ac7e612265565b1115612d0a5760088054600160a060020a03191673b7a07bcf2ba2f2703b24c0691b5278999c59ac7e17905560408051808201909152600981527f6574685f6b6f76616e00000000000000000000000000000000000000000000006020820152612bf290612e91565b6000612d2973146500cfd35b22e4a392fe0adc06de1a1368ed48612265565b1115612d925760088054600160a060020a03191673146500cfd35b22e4a392fe0adc06de1a1368ed4817905560408051808201909152600b81527f6574685f72696e6b6562790000000000000000000000000000000000000000006020820152612bf290612e91565b6000612db1736f485c8bf6fc43ea212e93bbf8ce046c7f1cb475612265565b1115612de5575060088054600160a060020a031916736f485c8bf6fc43ea212e93bbf8ce046c7f1cb4751790556001611bbb565b6000612e047320e12a1f859b3feae5fb2a0a32c18f5a65555bbf612265565b1115612e38575060088054600160a060020a0319167320e12a1f859b3feae5fb2a0a32c18f5a65555bbf1790556001611bbb565b6000612e577351efaf4c8b3c9afbd5ab9f4bbc82784ab6ef8faa612265565b1115612e8b575060088054600160a060020a0319167351efaf4c8b3c9afbd5ab9f4bbc82784ab6ef8faa1790556001611bbb565b50600090565b8051610f8c90600a9060208401905b828054600181600116156101000203166002900490600052602060002090601f016020900481019282601f10612ee157805160ff1916838001178555612f0e565b82800160010185558215612f0e579182015b82811115612f0e578251825591602001919060010190612ef3565b50612f1a929150612f5c565b5090565b6080604051908101604052806004906020820280388339509192915050565b60a0604051908101604052806005906020820280388339509192915050565b611bbb91905b80821115612f1a5760008155600101612f625600a165627a7a723058206b23974e45bd984661f8c1ea4e0b8994af0af64da4e951bddd8e7632ed16d3d50029",
  "source": "pragma solidity ^0.4.23;\n\nimport \"zeppelin-solidity/contracts/math/SafeMath.sol\";\nimport \"zeppelin-solidity/contracts/token/ERC20/ERC20Basic.sol\";\n\nimport \"./interfaces/MemberManagerInterface.sol\";\nimport \"./interfaces/MintableTokenInterface.sol\";\nimport \"./interfaces/ContractManagerInterface.sol\";\n\nimport \"./BonusProgram.sol\";\nimport \"./BountyProgram.sol\";\nimport \"./PriceChecker.sol\";\n\n/**\n * @title Fida Sale\n * @author Bram Hoven\n * @notice Contract which will run the fida sale\n */\ncontract FidaSale is BonusProgram, BountyProgram, PriceChecker {\n  using SafeMath for uint256;\n\n  // Wownity wallet\n  address public wallet;\n\n  // Address which can buy tokens that have been bought with btc\n  address public btcTokenBoughtAddress;\n  // Address which can add addresses to the whitelist\n  address public whitelistingAddress;\n\n  // Contract Manager\n  ContractManagerInterface private contractManager;\n  // Name of this contract\n  string private contractName;\n\n  // The fida ERC20 token\n  ERC20Basic private fidaToken;\n  // The fida mintable token\n  MintableTokenInterface private mintableFida;\n  // Address on which the fida ERC20 contract is deployed\n  address public fidaTokenAddress;\n  // Amount of decimals specified for the ERC20 token\n  uint256 public DECIMALS = 18;\n\n  // Contract for earlybird check\n  MemberManagerInterface public earlybird;\n\n  // Total amount of investors\n  uint256 public investorCount;\n\n  // Investor whitelist\n  mapping(address => bool) public whitelist;\n  // Mapping of all our investors and amount they invested\n  mapping(address => uint256) public investors;\n\n  // Initial amount of bonus program tokens\n  uint256 public INITIAL_BONUSLIST_TOKENS = 150 * 10**5 * 10**DECIMALS; // 15,000,000 fida\n  // Initial amount of earlybird program tokens\n  uint256 public INITIAL_EARLYBIRD_TOKENS = 50 * 10**5 * 10**DECIMALS; // 5,000,000 fida\n  // Tokens that have been bought in early bird program\n  uint256 public tokensBoughtInEarlybird = 0;\n\n  // Shows the state of the bonus program\n  bool public bonusProgramEnded = false;\n  // Shows the state of the earlybird progran\n  bool public earlybirdEnded = false;\n\n  // Shows whether the fida sale has started\n  bool public started = false;\n  // Shows the state of the fida sale\n  bool public finished = false;\n\n  /**\n   * @notice Triggered when token address is changed\n   * @param _oldAddress Address where the ERC20 contract used to be\n   * @param _newAddress Address where the new ERC20 contract is now deployed\n   */\n  event TokenAddressChanged(address indexed _oldAddress, address indexed _newAddress);\n\n  /**\n   * @notice Triggered when wallet address is changed\n   * @param _oldAddress Address where the wallet used to be\n   * @param _newAddress Address where the new wallet is\n   */\n  event WalletAddressChanged(address indexed _oldAddress, address indexed _newAddress);\n\n  /**\n   * @notice Triggered when btc token bought address is changed\n   * @param _oldAddress Address what the authorized address used to be\n   * @param _newAddress Address what the authorized address \n   */\n  event BtcTokenBoughtAddressChanged(address indexed _oldAddress, address indexed _newAddress);\n\n  /**\n   * @notice Triggered when the whitelisting address is changed\n   * @param _oldAddress Address what the authorized address used to be\n   * @param _newAddress Address what the authorized address \n   */\n  event WhitelistingAddressChanged(address indexed _oldAddress, address indexed _newAddress);\n\n  /**\n   * @notice Triggered when the whitelisting has changed for an address\n   * @param _address Address which whitelisting status has changed\n   * @param _whitelisted Status of his whitelisting (true = whitelisted)\n   */\n  event WhitelistChanged(address indexed _address, bool _whitelisted);\n\n  /**\n   * @notice Triggered when sale has started\n   */\n  event StartedSale();\n\n  /**\n   * @notice Triggered when sale has ended\n   */\n  event FinishedSale();\n\n  /**\n   * @notice Triggered when a early bird purchase has been made\n   * @param _buyer Address who bought the tokens\n   * @param _tokens Amount of tokens that have been bought\n   */\n  event BoughtEarlyBird(address indexed _buyer, uint256 _tokens);\n\n  /**\n   * @notice Triggered when a bonus program purchase has been made\n   * @param _buyer Address who bought the tokens\n   * @param _tokens Amount of tokens bought excl. bonus tokens\n   * @param _bonusTokens Amount of bonus tokens received\n   */\n  event BoughtBonusProgram(address indexed _buyer, uint256 _tokens, uint256 _bonusTokens);\n\n  /**\n   * @notice Contructor for creating the fida sale\n   * @param _contractName Name of this contract in the contract manager\n   * @param _wallet Address of wallet where funds will be send\n   * @param _bountyAddress Address of wallet where bounty tokens will be send to\n   * @param _btcTokenBoughtAddress Address which is authorized to send tokens bought with btc\n   * @param _whitelistingAddress Address which is authorized to add address to the whitelist\n   * @param _priceCheckerAddress Address which is allow to call `updatePrice()`\n   * @param _contractManager Address where the contract manager is deployed\n   * @param _tokenContractName Name of the token contract in the contract manager\n   * @param _memberContractName Name of the member manager contract in the contract manager\n   */\n  constructor(string _contractName, address _wallet, address _bountyAddress, address _btcTokenBoughtAddress, address _whitelistingAddress, address _priceCheckerAddress, address _contractManager, string _tokenContractName, string _memberContractName) public payable \n    BonusProgram(INITIAL_BONUSLIST_TOKENS) \n    BountyProgram(_contractName, _bountyAddress, _bountyAddress, _contractManager) \n    PriceChecker(_priceCheckerAddress) {\n\n    contractName = _contractName;\n    wallet = _wallet;\n    btcTokenBoughtAddress = _btcTokenBoughtAddress;\n    whitelistingAddress = _whitelistingAddress;\n    contractManager = ContractManagerInterface(_contractManager);\n\n    _changeTokenAddress(contractManager.getContract(_tokenContractName));\n    earlybird = MemberManagerInterface(contractManager.getContract(_memberContractName));\n  }\n\n  /**\n   * @notice Internal function for changing the token address\n   * @param _tokenAddress Address where the new ERC20 contract is deployed\n   */\n  function _changeTokenAddress(address _tokenAddress) internal {\n    require(_tokenAddress != address(0));\n\n    address oldAddress = fidaTokenAddress;\n    fidaTokenAddress = _tokenAddress;\n    fidaToken = ERC20Basic(_tokenAddress);\n    mintableFida = MintableTokenInterface(_tokenAddress);\n\n    emit TokenAddressChanged(oldAddress, _tokenAddress);\n  }\n\n  /**\n   * @notice Change the wallet where ether will be sent to when tokens are bought\n   * @param _walletAddress Address of the wallet\n   */\n  function setWalletAddress(address _walletAddress) external {\n    require(contractManager.authorize(contractName, msg.sender));\n    require(_walletAddress != address(0));\n    require(_walletAddress != wallet);\n\n    address oldAddress = wallet;\n    wallet = _walletAddress;\n\n    emit WalletAddressChanged(oldAddress, _walletAddress);\n  }\n  \n  /**\n   * @notice Change the address which is authorized to send bought tokens with BTC\n   * @param _address Address of the authorized btc tokens bought client\n   */\n  function setBtcTokenBoughtAddress(address _address) external {\n    require(contractManager.authorize(contractName, msg.sender));\n    require(_address != address(0));\n    require(_address != btcTokenBoughtAddress);\n\n    address oldAddress = btcTokenBoughtAddress;\n    btcTokenBoughtAddress = _address;\n\n    emit BtcTokenBoughtAddressChanged(oldAddress, _address);\n  }\n\n  /**\n   * @notice Change the address that is authorized to change whitelist\n   * @param _address The authorized address\n   */\n  function setWhitelistingAddress(address _address) external {\n    require(contractManager.authorize(contractName, msg.sender));\n    require(_address != address(0));\n    require(_address != whitelistingAddress);\n\n    address oldAddress = whitelistingAddress;\n    whitelistingAddress = _address;\n\n    emit WhitelistingAddressChanged(oldAddress, _address);\n  }\n\n  /**\n   * @notice Set the whitelist status for an address\n   * @param _address Address which will have his status changed\n   * @param _whitelisted True or False whether whitelisted or not\n   */\n  function setWhitelistStatus(address _address, bool _whitelisted) external {\n    require(msg.sender == whitelistingAddress);\n    require(whitelist[_address] != _whitelisted);\n\n    whitelist[_address] = _whitelisted;\n\n    emit WhitelistChanged(_address, _whitelisted);\n  }\n\n  /**\n   * @notice Get the whitelist status for an address\n   * @param _address Address which is or isn't whitelisted\n   */\n  function getWhitelistStatus(address _address) external returns (bool _whitelisted) {\n    require(msg.sender == whitelistingAddress);\n\n    return whitelist[_address];\n  }\n\n  /**\n   * @notice Amount of fida you would get for any amount in wei\n   * @param _weiAmount Amount of wei you want to know the amount of fida for\n   */\n  function getAmountFida(uint256 _weiAmount) public view returns (uint256 _fidaAmount) {\n    require(_weiAmount != 0);\n\n    // fidaPerEther has been mutliplied by 10**5 because of decimals\n    // so we have to divide by 100000\n    _fidaAmount = _weiAmount.mul(fidaPerEther).div(100000);\n\n    return _fidaAmount;\n  }\n\n  /**\n   * @notice Internal function for investing as a earlybird member\n   * @param _beneficiary Address on which tokens will be deposited\n   * @param _amountTokens Amount of tokens that will be bought\n   */\n  function _investAsEarlybird(address _beneficiary, uint256 _amountTokens) internal {\n    tokensBoughtInEarlybird = tokensBoughtInEarlybird.add(_amountTokens);\n\n    earlybird.addAmountBoughtAsMember(_beneficiary, _amountTokens);\n    _depositTokens(_beneficiary, _amountTokens);\n\n    emit BoughtEarlyBird(_beneficiary, _amountTokens);\n\n    if (tokensBoughtInEarlybird >= INITIAL_EARLYBIRD_TOKENS) {\n      earlybirdEnded = true;\n    }\n  }\n\n  /**\n   * @notice Internal function for invest as a bonusprogram member\n   * @param _beneficiary Address on which tokens will be deposited\n   * @param _amountTokens Amount of tokens that will be bought\n   */\n  function _investAsBonusProgram(address _beneficiary, uint256 _amountTokens) internal {\n    uint256 bonusTokens = _calculateBonus(_amountTokens, tokensBoughtInBonusProgram);\n    uint256 amountTokensWithBonus = _amountTokens.add(bonusTokens);\n\n    tokensBoughtInBonusProgram = tokensBoughtInBonusProgram.add(_amountTokens);\n\n    _depositTokens(_beneficiary, amountTokensWithBonus);\n\n    emit BoughtBonusProgram(_beneficiary, _amountTokens, bonusTokens);\n\n    if (tokensBoughtInBonusProgram >= INITIAL_BONUSLIST_TOKENS) {\n      bonusProgramEnded = true;\n    }\n  }\n\n  /**\n   * @notice Internal function for depositing tokens after they had been bought\n   * @param _beneficiary Address on which the tokens will be deposited\n   * @param _amountTokens Amount of tokens that have been bought\n   */\n  function _depositTokens(address _beneficiary, uint256 _amountTokens) internal {\n    require(_amountTokens != 0);\n\n    if (investors[_beneficiary] == 0) {\n      investorCount++;\n    }\n\n    investors[_beneficiary] = investors[_beneficiary].add(_amountTokens);\n\n    mintableFida.sendBoughtTokens(_beneficiary, _amountTokens);\n  }\n\n  /**\n   * @notice Public payable function to buy tokens during sale or emission\n   * @param _beneficiary Address to which tokens will be deposited\n   */\n  function buyTokens(address _beneficiary) public payable {\n    require(started);\n    require(!finished);\n    require(_beneficiary != address(0));\n    require(msg.value != 0);\n    require(whitelist[msg.sender] && whitelist[_beneficiary]);\n    require(fidaToken.totalSupply() < 24750 * 10**3 * 10**DECIMALS);\n\n    uint256 amountTokens = getAmountFida(msg.value);\n    require(amountTokens >= 50 * 10**DECIMALS);\n\n    if (!earlybirdEnded) {\n      _investAsEarlybird(_beneficiary, amountTokens);\n    } else {\n      _investAsBonusProgram(_beneficiary, amountTokens);\n    }\n\n    wallet.transfer(msg.value);\n  }\n\n  /**\n   * @notice Public payable function to buy tokens during sale or emission\n   * @param _beneficiary Address to which tokens will be deposited\n   * @param _tokens Amount of tokens that will be bought\n   */\n  function tokensBoughtWithBTC(address _beneficiary, uint256 _tokens) public payable {\n    require(msg.sender == btcTokenBoughtAddress);\n    require(started);\n    require(!finished);\n    require(_beneficiary != address(0));\n    require(whitelist[_beneficiary]);\n    require(fidaToken.totalSupply() < 24750 * 10**3 * 10**DECIMALS);\n    require(_tokens >= 50 * 10**DECIMALS);\n\n    if (!earlybirdEnded) {\n      _investAsEarlybird(_beneficiary, _tokens);\n    } else {\n      _investAsBonusProgram(_beneficiary, _tokens);\n    }\n  }\n\n  /**\n   * @notice Anonymous payable function, this makes it easier for people to buy their tokens\n   */\n  function () public payable {\n    buyTokens(msg.sender);\n  }\n\n  /**\n   * @notice Function to start this sale\n   */\n  function startSale() public {\n    require(contractManager.authorize(contractName, msg.sender));\n    require(!started);\n    require(!finished);\n\n    started = true;\n\n    emit StartedSale();\n  }\n\n  /**\n   * @notice Function to finish this sale\n   */\n  function finishedSale() public {\n    require(contractManager.authorize(contractName, msg.sender));\n    require(started);\n    require(!finished);\n\n    finished = true;\n\n    emit FinishedSale();\n  }\n}\n",
  "sourcePath": "/home/shinxs/Projects/fida/contracts/FidaSale.sol",
  "compiler": {
    "name": "solc",
    "version": "0.4.23+commit.124ca40d.Emscripten.clang"
  },
  "schemaVersion": "2.0.0",
  "updatedAt": "2018-05-23T08:44:56.155Z"
}