{
  "contractName": "MemberManager",
  "abi": [
    {
      "constant": true,
      "inputs": [
        {
          "name": "",
          "type": "address"
        }
      ],
      "name": "members",
      "outputs": [
        {
          "name": "",
          "type": "bool"
        }
      ],
      "payable": false,
      "stateMutability": "view",
      "type": "function"
    },
    {
      "constant": true,
      "inputs": [
        {
          "name": "",
          "type": "address"
        }
      ],
      "name": "bought",
      "outputs": [
        {
          "name": "",
          "type": "uint256"
        }
      ],
      "payable": false,
      "stateMutability": "view",
      "type": "function"
    },
    {
      "constant": true,
      "inputs": [],
      "name": "contractName",
      "outputs": [
        {
          "name": "",
          "type": "string"
        }
      ],
      "payable": false,
      "stateMutability": "view",
      "type": "function"
    },
    {
      "constant": true,
      "inputs": [
        {
          "name": "",
          "type": "uint256"
        }
      ],
      "name": "memberKeys",
      "outputs": [
        {
          "name": "",
          "type": "address"
        }
      ],
      "payable": false,
      "stateMutability": "view",
      "type": "function"
    },
    {
      "inputs": [
        {
          "name": "_contractName",
          "type": "string"
        },
        {
          "name": "_contractManager",
          "type": "address"
        }
      ],
      "payable": false,
      "stateMutability": "nonpayable",
      "type": "constructor"
    },
    {
      "anonymous": false,
      "inputs": [
        {
          "indexed": true,
          "name": "member",
          "type": "address"
        }
      ],
      "name": "MemberAdded",
      "type": "event"
    },
    {
      "anonymous": false,
      "inputs": [
        {
          "indexed": true,
          "name": "member",
          "type": "address"
        }
      ],
      "name": "MemberRemoved",
      "type": "event"
    },
    {
      "anonymous": false,
      "inputs": [
        {
          "indexed": true,
          "name": "member",
          "type": "address"
        },
        {
          "indexed": false,
          "name": "tokensBought",
          "type": "uint256"
        },
        {
          "indexed": false,
          "name": "tokens",
          "type": "uint256"
        }
      ],
      "name": "TokensBought",
      "type": "event"
    },
    {
      "constant": false,
      "inputs": [
        {
          "name": "_member",
          "type": "address"
        }
      ],
      "name": "removeMember",
      "outputs": [],
      "payable": false,
      "stateMutability": "nonpayable",
      "type": "function"
    },
    {
      "constant": false,
      "inputs": [
        {
          "name": "_member",
          "type": "address"
        },
        {
          "name": "_amountBought",
          "type": "uint256"
        }
      ],
      "name": "addAmountBoughtAsMember",
      "outputs": [],
      "payable": false,
      "stateMutability": "nonpayable",
      "type": "function"
    }
  ],
  "bytecode": "0x608060405234801561001057600080fd5b506040516109ce3803806109ce83398101604052805160208083015191909201805190926100439160039185019061006a565b5060048054600160a060020a031916600160a060020a039290921691909117905550610105565b828054600181600116156101000203166002900490600052602060002090601f016020900481019282601f106100ab57805160ff19168380011785556100d8565b828001600101855582156100d8579182015b828111156100d85782518255916020019190600101906100bd565b506100e49291506100e8565b5090565b61010291905b808211156100e457600081556001016100ee565b90565b6108ba806101146000396000f3006080604052600436106100775763ffffffff7c010000000000000000000000000000000000000000000000000000000060003504166308ae4b0c811461007c5780630b1ca49a146100b1578063667022fd146100d457806375d0c0dc14610107578063c592c3ba14610191578063f504b089146101b5575b600080fd5b34801561008857600080fd5b5061009d600160a060020a03600435166101e9565b604080519115158252519081900360200190f35b3480156100bd57600080fd5b506100d2600160a060020a03600435166101fe565b005b3480156100e057600080fd5b506100f5600160a060020a036004351661041f565b60408051918252519081900360200190f35b34801561011357600080fd5b5061011c610431565b6040805160208082528351818301528351919283929083019185019080838360005b8381101561015657818101518382015260200161013e565b50505050905090810190601f1680156101835780820380516001836020036101000a031916815260200191505b509250505060405180910390f35b34801561019d57600080fd5b506100d2600160a060020a03600435166024356104bf565b3480156101c157600080fd5b506101cd60043561069a565b60408051600160a060020a039092168252519081900360200190f35b60006020819052908152604090205460ff1681565b60048054604080517f8645770200000000000000000000000000000000000000000000000000000000815233600160a060020a0381811660248401529482019283526003805460026000196001831615610100020190911604604484018190526000969095169463864577029491938291606490910190859080156102c45780601f10610299576101008083540402835291602001916102c4565b820191906000526020600020905b8154815290600101906020018083116102a757829003601f168201915b50509350505050602060405180830381600087803b1580156102e557600080fd5b505af11580156102f9573d6000803e3d6000fd5b505050506040513d602081101561030f57600080fd5b5051151561031c57600080fd5b600160a060020a03821660009081526020819052604090205460ff16151560011461034657600080fd5b50600160a060020a0381166000908152602081905260408120805460ff191690555b6002548110156103e75781600160a060020a031660028281548110151561038b57fe5b600091825260209091200154600160a060020a031614156103df5760028054829081106103b457fe5b6000918252602090912001805473ffffffffffffffffffffffffffffffffffffffff191690556103e7565b600101610368565b604051600160a060020a038316907f6e76fb4c77256006d9c38ec7d82b45a8c8f3c27b1d6766fffc42dfb8de68449290600090a25050565b60016020526000908152604090205481565b6003805460408051602060026001851615610100026000190190941693909304601f810184900484028201840190925281815292918301828280156104b75780601f1061048c576101008083540402835291602001916104b7565b820191906000526020600020905b81548152906001019060200180831161049a57829003601f168201915b505050505081565b60048054604080517f8645770200000000000000000000000000000000000000000000000000000000815233600160a060020a03818116602484015294820192835260038054600260001960018316156101000201909116046044840181905295909416946386457702949391928291606490910190859080156105845780601f1061055957610100808354040283529160200191610584565b820191906000526020600020905b81548152906001019060200180831161056757829003601f168201915b50509350505050602060405180830381600087803b1580156105a557600080fd5b505af11580156105b9573d6000803e3d6000fd5b505050506040513d60208110156105cf57600080fd5b505115156105dc57600080fd5b8015156105e857600080fd5b600160a060020a03821660009081526020819052604090205460ff16151561061357610613826106c2565b600160a060020a03821660009081526001602052604090205461063c908263ffffffff61087816565b600160a060020a038316600081815260016020908152604091829020849055815185815290810193909352805191927f8442948036198f1146d3a63c3db355d7e0295c2cc5676c755990445da4fdc1c9929081900390910190a25050565b60028054829081106106a857fe5b600091825260209091200154600160a060020a0316905081565b60048054604080517f8645770200000000000000000000000000000000000000000000000000000000815233600160a060020a03818116602484015294820192835260038054600260001960018316156101000201909116046044840181905295909416946386457702949391928291606490910190859080156107875780601f1061075c57610100808354040283529160200191610787565b820191906000526020600020905b81548152906001019060200180831161076a57829003601f168201915b50509350505050602060405180830381600087803b1580156107a857600080fd5b505af11580156107bc573d6000803e3d6000fd5b505050506040513d60208110156107d257600080fd5b505115156107df57600080fd5b600160a060020a038116600081815260208190526040808220805460ff1916600190811790915560028054918201815583527f405787fa12a823e0f2b7631cc41b3ba8828b3321ca811111fa75cd3aa3bb5ace01805473ffffffffffffffffffffffffffffffffffffffff191684179055517fb251eb052afc73ffd02ffe85ad79990a8b3fed60d76dbc2fa2fdd7123dffd9149190a250565b60008282018381101561088757fe5b93925050505600a165627a7a72305820e2c7f3886c19c87af4308ccc3b6ca8efff9a1280cc2ed376e91318055ebb28010029",
  "source": "pragma solidity ^0.4.23;\n\nimport \"./interfaces/MemberManagerInterface.sol\";\nimport \"zeppelin-solidity/contracts/math/SafeMath.sol\";\nimport \"./interfaces/ContractManagerInterface.sol\";\n\n/**\n * @title Member Manager\n * @author Bram Hoven\n * @notice Stores a list of member which can be used for something like authorization\n */\ncontract MemberManager is MemberManagerInterface {\n  using SafeMath for uint256;\n  \n  // Map containing every member\n  mapping(address => bool) public members;\n  // Map containing amount of tokens bought\n  mapping(address => uint256) public bought;\n  // List containing all members\n  address[] public memberKeys;\n\n  // Name of this contract\n  string public contractName;\n  // Contract Manager\n  ContractManagerInterface internal contractManager;\n\n  /**\n   * @notice Triggered when member is added\n   * @param member Address of newly added member\n   */\n  event MemberAdded(address indexed member);\n\n  /**\n   * @notice Triggered when member is removed\n   * @param member Address of removed member\n   */\n  event MemberRemoved(address indexed member);\n\n  /**\n   * @notice Triggered when member has bought tokens\n   * @param member Address of member\n   * @param tokensBought Amount of tokens bought\n   * @param tokens Amount of total tokens bought by member\n   */\n  event TokensBought(address indexed member, uint256 tokensBought, uint256 tokens);\n\n  /**\n   * @notice Constructor for creating member manager\n   * @param _contractName Name of this contract for lookup in contract manager\n   * @param _contractManager Address where the contract manager is located\n   */\n  constructor(string _contractName, address _contractManager) public {\n    contractName = _contractName;\n    contractManager = ContractManagerInterface(_contractManager);\n  }\n\n  /**\n   * @notice Add a member to this contract\n   * @param _member Address of the new member\n   */\n  function _addMember(address _member) internal {\n    require(contractManager.authorize(contractName, msg.sender));\n\n    members[_member] = true;\n    memberKeys.push(_member);\n\n    emit MemberAdded(_member);\n  }\n\n  /**\n   * @notice Remove a member from this contract\n   * @param _member Address of member that will be removed\n   */\n  function removeMember(address _member) external {\n    require(contractManager.authorize(contractName, msg.sender));\n    require(members[_member] == true);\n\n    delete members[_member];\n\n    for (uint256 i = 0; i < memberKeys.length; i++) {\n      if (memberKeys[i] == _member) {\n        delete memberKeys[i];\n        break;\n      }\n    }\n\n    emit MemberRemoved(_member);\n  }\n\n  /**\n   * @notice Add to the amount this member has bought\n   * @param _member Address of the corresponding member\n   * @param _amountBought Amount of tokens this member has bought\n   */\n  function addAmountBoughtAsMember(address _member, uint256 _amountBought) external {\n    require(contractManager.authorize(contractName, msg.sender));\n    require(_amountBought != 0);\n\n    if(!members[_member]) {\n      _addMember(_member);\n    }\n\n    bought[_member] = bought[_member].add(_amountBought);\n\n    emit TokensBought(_member, _amountBought, bought[_member]);\n  }\n}",
  "sourcePath": "/home/shinxs/Projects/fida/contracts/MemberManager.sol",
  "compiler": {
    "name": "solc",
    "version": "0.4.23+commit.124ca40d.Emscripten.clang"
  },
  "schemaVersion": "2.0.0",
  "updatedAt": "2018-05-23T08:44:56.104Z"
}