{
  "contractName": "MintableToken",
  "abi": [
    {
      "constant": false,
      "inputs": [
        {
          "name": "_spender",
          "type": "address"
        },
        {
          "name": "_value",
          "type": "uint256"
        }
      ],
      "name": "approve",
      "outputs": [
        {
          "name": "",
          "type": "bool"
        }
      ],
      "payable": false,
      "stateMutability": "nonpayable",
      "type": "function"
    },
    {
      "constant": true,
      "inputs": [],
      "name": "totalSupply",
      "outputs": [
        {
          "name": "",
          "type": "uint256"
        }
      ],
      "payable": false,
      "stateMutability": "view",
      "type": "function"
    },
    {
      "constant": false,
      "inputs": [
        {
          "name": "_from",
          "type": "address"
        },
        {
          "name": "_to",
          "type": "address"
        },
        {
          "name": "_value",
          "type": "uint256"
        }
      ],
      "name": "transferFrom",
      "outputs": [
        {
          "name": "",
          "type": "bool"
        }
      ],
      "payable": false,
      "stateMutability": "nonpayable",
      "type": "function"
    },
    {
      "constant": true,
      "inputs": [],
      "name": "depositAddress",
      "outputs": [
        {
          "name": "",
          "type": "address"
        }
      ],
      "payable": false,
      "stateMutability": "view",
      "type": "function"
    },
    {
      "constant": false,
      "inputs": [
        {
          "name": "_spender",
          "type": "address"
        },
        {
          "name": "_subtractedValue",
          "type": "uint256"
        }
      ],
      "name": "decreaseApproval",
      "outputs": [
        {
          "name": "",
          "type": "bool"
        }
      ],
      "payable": false,
      "stateMutability": "nonpayable",
      "type": "function"
    },
    {
      "constant": true,
      "inputs": [
        {
          "name": "_owner",
          "type": "address"
        }
      ],
      "name": "balanceOf",
      "outputs": [
        {
          "name": "balance",
          "type": "uint256"
        }
      ],
      "payable": false,
      "stateMutability": "view",
      "type": "function"
    },
    {
      "constant": true,
      "inputs": [],
      "name": "contractName",
      "outputs": [
        {
          "name": "",
          "type": "string"
        }
      ],
      "payable": false,
      "stateMutability": "view",
      "type": "function"
    },
    {
      "constant": false,
      "inputs": [
        {
          "name": "_to",
          "type": "address"
        },
        {
          "name": "_value",
          "type": "uint256"
        }
      ],
      "name": "transfer",
      "outputs": [
        {
          "name": "",
          "type": "bool"
        }
      ],
      "payable": false,
      "stateMutability": "nonpayable",
      "type": "function"
    },
    {
      "constant": true,
      "inputs": [],
      "name": "locked",
      "outputs": [
        {
          "name": "",
          "type": "bool"
        }
      ],
      "payable": false,
      "stateMutability": "view",
      "type": "function"
    },
    {
      "constant": false,
      "inputs": [
        {
          "name": "_spender",
          "type": "address"
        },
        {
          "name": "_addedValue",
          "type": "uint256"
        }
      ],
      "name": "increaseApproval",
      "outputs": [
        {
          "name": "",
          "type": "bool"
        }
      ],
      "payable": false,
      "stateMutability": "nonpayable",
      "type": "function"
    },
    {
      "constant": true,
      "inputs": [
        {
          "name": "_owner",
          "type": "address"
        },
        {
          "name": "_spender",
          "type": "address"
        }
      ],
      "name": "allowance",
      "outputs": [
        {
          "name": "",
          "type": "uint256"
        }
      ],
      "payable": false,
      "stateMutability": "view",
      "type": "function"
    },
    {
      "constant": false,
      "inputs": [],
      "name": "unlockTokens",
      "outputs": [],
      "payable": false,
      "stateMutability": "nonpayable",
      "type": "function"
    },
    {
      "inputs": [
        {
          "name": "_depositAddress",
          "type": "address"
        },
        {
          "name": "_contractName",
          "type": "string"
        },
        {
          "name": "_contractManager",
          "type": "address"
        }
      ],
      "payable": false,
      "stateMutability": "nonpayable",
      "type": "constructor"
    },
    {
      "anonymous": false,
      "inputs": [],
      "name": "TokensUnlocked",
      "type": "event"
    },
    {
      "anonymous": false,
      "inputs": [
        {
          "indexed": true,
          "name": "owner",
          "type": "address"
        },
        {
          "indexed": true,
          "name": "spender",
          "type": "address"
        },
        {
          "indexed": false,
          "name": "value",
          "type": "uint256"
        }
      ],
      "name": "Approval",
      "type": "event"
    },
    {
      "anonymous": false,
      "inputs": [
        {
          "indexed": true,
          "name": "from",
          "type": "address"
        },
        {
          "indexed": true,
          "name": "to",
          "type": "address"
        },
        {
          "indexed": false,
          "name": "value",
          "type": "uint256"
        }
      ],
      "name": "Transfer",
      "type": "event"
    },
    {
      "anonymous": false,
      "inputs": [
        {
          "indexed": true,
          "name": "_from",
          "type": "address"
        },
        {
          "indexed": true,
          "name": "_to",
          "type": "address"
        },
        {
          "indexed": false,
          "name": "_tokens",
          "type": "uint256"
        }
      ],
      "name": "TokensMinted",
      "type": "event"
    },
    {
      "anonymous": false,
      "inputs": [
        {
          "indexed": true,
          "name": "_old",
          "type": "address"
        },
        {
          "indexed": true,
          "name": "_new",
          "type": "address"
        }
      ],
      "name": "DepositAddressChanged",
      "type": "event"
    },
    {
      "constant": false,
      "inputs": [
        {
          "name": "_tokens",
          "type": "uint256"
        }
      ],
      "name": "mintTokens",
      "outputs": [],
      "payable": false,
      "stateMutability": "nonpayable",
      "type": "function"
    },
    {
      "constant": false,
      "inputs": [
        {
          "name": "_beneficiary",
          "type": "address"
        },
        {
          "name": "_tokens",
          "type": "uint256"
        }
      ],
      "name": "sendBoughtTokens",
      "outputs": [],
      "payable": false,
      "stateMutability": "nonpayable",
      "type": "function"
    },
    {
      "constant": false,
      "inputs": [
        {
          "name": "_depositAddress",
          "type": "address"
        }
      ],
      "name": "changeDepositAddress",
      "outputs": [],
      "payable": false,
      "stateMutability": "nonpayable",
      "type": "function"
    }
  ],
  "bytecode": "0x60806040526003805460ff1916600117905534801561001d57600080fd5b506040516110ff3803806110ff8339810160409081528151602080840151928401516003805461010060a860020a031916610100600160a060020a03861602179055929093018051919390929161007a91600491908501906100a3565b5060058054600160a060020a031916600160a060020a03929092169190911790555061013e9050565b828054600181600116156101000203166002900490600052602060002090601f016020900481019282601f106100e457805160ff1916838001178555610111565b82800160010185558215610111579182015b828111156101115782518255916020019190600101906100f6565b5061011d929150610121565b5090565b61013b91905b8082111561011d5760008155600101610127565b90565b610fb28061014d6000396000f3006080604052600436106100da5763ffffffff7c0100000000000000000000000000000000000000000000000000000000600035041663095ea7b381146100df57806318160ddd1461011757806323b872dd1461013e57806328f833b71461016857806366188463146101995780636d58c88f146101bd57806370a08231146101e057806375d0c0dc1461020157806397304ced1461028b578063a9059cbb146102a3578063cf309012146102c7578063d73dd623146102dc578063dd62ed3e14610300578063f3cd543f14610327578063f968f4931461034b575b600080fd5b3480156100eb57600080fd5b50610103600160a060020a0360043516602435610360565b604080519115158252519081900360200190f35b34801561012357600080fd5b5061012c6103d9565b60408051918252519081900360200190f35b34801561014a57600080fd5b50610103600160a060020a03600435811690602435166044356103df565b34801561017457600080fd5b5061017d610570565b60408051600160a060020a039092168252519081900360200190f35b3480156101a557600080fd5b50610103600160a060020a0360043516602435610584565b3480156101c957600080fd5b506101de600160a060020a0360043516610693565b005b3480156101ec57600080fd5b5061012c600160a060020a0360043516610850565b34801561020d57600080fd5b5061021661086b565b6040805160208082528351818301528351919283929083019185019080838360005b83811015610250578181015183820152602001610238565b50505050905090810190601f16801561027d5780820380516001836020036101000a031916815260200191505b509250505060405180910390f35b34801561029757600080fd5b506101de6004356108f9565b3480156102af57600080fd5b50610103600160a060020a0360043516602435610adb565b3480156102d357600080fd5b50610103610af9565b3480156102e857600080fd5b50610103600160a060020a0360043516602435610b02565b34801561030c57600080fd5b5061012c600160a060020a0360043581169060243516610bb5565b34801561033357600080fd5b506101de600160a060020a0360043516602435610bf4565b34801561035757600080fd5b506101de610e0a565b60035460009060ff161561037357600080fd5b600160a060020a03338116600081815260016020908152604080832094881680845294825291829020869055815186815291517f8c5be1e5ebec7d5bd14f71427d1e84f3dd0314c0f7b2291e5b200ac8c7c3b9259281900390910190a350600192915050565b60025490565b60035460009060ff16156103f257600080fd5b600160a060020a038316151561040757600080fd5b600160a060020a03841660009081526020819052604090205482111561042c57600080fd5b600160a060020a038085166000908152600160209081526040808320339094168352929052205482111561045f57600080fd5b600160a060020a038416600090815260208190526040902054610488908363ffffffff610e5016565b600160a060020a0380861660009081526020819052604080822093909355908516815220546104bd908363ffffffff610e6216565b600160a060020a0380851660009081526020818152604080832094909455878316825260018152838220339093168252919091522054610503908363ffffffff610e5016565b600160a060020a038086166000818152600160209081526040808320338616845282529182902094909455805186815290519287169391927fddf252ad1be2c89b69c2b068fc378daa952ba7f163c4a11628f55a4df523b3ef929181900390910190a35060019392505050565b6003546101009004600160a060020a031681565b600354600090819060ff161561059957600080fd5b50600160a060020a03338116600090815260016020908152604080832093871683529290522054808311156105f557600160a060020a03338116600090815260016020908152604080832093881683529290529081205561062c565b610605818463ffffffff610e5016565b600160a060020a033381166000908152600160209081526040808320938916835292905220555b600160a060020a0333811660008181526001602090815260408083209489168084529482529182902054825190815291517f8c5be1e5ebec7d5bd14f71427d1e84f3dd0314c0f7b2291e5b200ac8c7c3b9259281900390910190a3600191505b5092915050565b600554604080517f86457702000000000000000000000000000000000000000000000000000000008152600160a060020a0333818116602484015260048084019485528054600261010060018316150260001901909116046044850181905260009693909316946386457702949193909182916064909101908590801561075b5780601f106107305761010080835404028352916020019161075b565b820191906000526020600020905b81548152906001019060200180831161073e57829003601f168201915b50509350505050602060405180830381600087803b15801561077c57600080fd5b505af1158015610790573d6000803e3d6000fd5b505050506040513d60208110156107a657600080fd5b505115156107b357600080fd5b600160a060020a03821615156107c857600080fd5b600354600160a060020a038381166101009092041614156107e857600080fd5b5060038054600160a060020a0383811661010081810274ffffffffffffffffffffffffffffffffffffffff001985161790945560405193909204169182907fa2fa2b3cf1d10ada9e20317a6f64da336f58a46a30201f975780faf6f0e0aa4490600090a35050565b600160a060020a031660009081526020819052604090205490565b6004805460408051602060026001851615610100026000190190941693909304601f810184900484028201840190925281815292918301828280156108f15780601f106108c6576101008083540402835291602001916108f1565b820191906000526020600020905b8154815290600101906020018083116108d457829003601f168201915b505050505081565b60035460ff161561090957600080fd5b600554604080517f8645770200000000000000000000000000000000000000000000000000000000815233600160a060020a038181166024840152600483810194855280546002600019600183161561010002019091160460448501819052919095169463864577029490939091829160640190859080156109cc5780601f106109a1576101008083540402835291602001916109cc565b820191906000526020600020905b8154815290600101906020018083116109af57829003601f168201915b50509350505050602060405180830381600087803b1580156109ed57600080fd5b505af1158015610a01573d6000803e3d6000fd5b505050506040513d6020811015610a1757600080fd5b50511515610a2457600080fd5b801515610a3057600080fd5b600254610a43908263ffffffff610e6216565b6002556003546101009004600160a060020a0316600090815260208190526040902054610a709082610e62565b60038054600160a060020a03610100918290048116600090815260208181526040918290209590955592548351868152935192900481169333909116927fbf67ec129007be07f346d9d2933215293a6612ce7ff17d6b479a5a5cae72890c929081900390910190a350565b60035460009060ff1615610aee57600080fd5b61068c338484610e78565b60035460ff1681565b60035460009060ff1615610b1557600080fd5b600160a060020a03338116600090815260016020908152604080832093871683529290522054610b4b908363ffffffff610e6216565b600160a060020a0333811660008181526001602090815260408083209489168084529482529182902085905581519485529051929391927f8c5be1e5ebec7d5bd14f71427d1e84f3dd0314c0f7b2291e5b200ac8c7c3b9259281900390910190a350600192915050565b60035460009060ff1615610bc857600080fd5b50600160a060020a03918216600090815260016020908152604080832093909416825291909152205490565b60035460ff161515610c0557600080fd5b600554604080517f8645770200000000000000000000000000000000000000000000000000000000815233600160a060020a03818116602484015260048381019485528054600260001960018316156101000201909116046044850181905291909516946386457702949093909182916064019085908015610cc85780601f10610c9d57610100808354040283529160200191610cc8565b820191906000526020600020905b815481529060010190602001808311610cab57829003601f168201915b50509350505050602060405180830381600087803b158015610ce957600080fd5b505af1158015610cfd573d6000803e3d6000fd5b505050506040513d6020811015610d1357600080fd5b50511515610d2057600080fd5b600160a060020a0382161515610d3557600080fd5b801515610d4157600080fd5b600254610d54908263ffffffff610e6216565b6002556003546101009004600160a060020a0316600090815260208190526040902054610d819082610e62565b60038054600160a060020a03610100918290048116600090815260208181526040918290209590955592548351868152935192900481169333909116927fbf67ec129007be07f346d9d2933215293a6612ce7ff17d6b479a5a5cae72890c929081900390910190a3600354610e05906101009004600160a060020a03168383610e78565b505050565b60035460ff161515610e1b57600080fd5b6003805460ff191690556040517f27591baca3ab78e62a0cbf3b92bae5a04d5a1768b720a980d1f4671374c93c4c90600090a1565b600082821115610e5c57fe5b50900390565b600082820183811015610e7157fe5b9392505050565b6000600160a060020a0384161515610e8f57600080fd5b600160a060020a0383161515610ea457600080fd5b600160a060020a038416600090815260208190526040902054821115610ec957600080fd5b600160a060020a038416600090815260208190526040902054610ef2908363ffffffff610e5016565b600160a060020a038086166000908152602081905260408082209390935590851681522054610f27908363ffffffff610e6216565b600160a060020a038085166000818152602081815260409182902094909455805186815290519193928816927fddf252ad1be2c89b69c2b068fc378daa952ba7f163c4a11628f55a4df523b3ef92918290030190a350600193925050505600a165627a7a723058205422c30c4d7e84206227c407a225bb5ef72371ffe7b2c20b2d3959933bdcb6b70029",
  "source": "pragma solidity ^0.4.23;\n\nimport \"../interfaces/MintableTokenInterface.sol\";\nimport \"../interfaces/ContractManagerInterface.sol\";\n\nimport \"./BasicToken.sol\";\n\n/**\n * @title Mintable Token\n * @author Bram Hoven\n * @notice Contract for a token which can be minted during the sale or after\n */\ncontract MintableToken is MintableTokenInterface, BasicToken {\n  // Address on which minted coins will be deposited (and burned if needed)\n  address public depositAddress;\n  // Name of this contract\n  string public contractName;\n  // Contract Manager\n  ContractManagerInterface internal contractManager;\n\n  /**\n   * @notice Constructor for creating mintable token\n   * @param _depositAddress Address on which minted coins will be deposited\n   * @param _contractName Name of this contract for lookup in contract manager\n   * @param _contractManager Address where the contract manager is located\n   */\n  constructor(address _depositAddress, string _contractName, address _contractManager) public {\n    depositAddress = _depositAddress;\n    contractName = _contractName;\n    contractManager = ContractManagerInterface(_contractManager);\n  }\n\n  /**\n   * @notice Called when new tokens are needed in circulation\n   * @param _tokens Amount for tokens to be created\n   */\n  function mintTokens(uint256 _tokens) external {\n    require(!locked);\n    require(contractManager.authorize(contractName, msg.sender));\n    require(_tokens != 0);\n\n    totalSupply_ = totalSupply_.add(_tokens);\n    balances[depositAddress] = balances[depositAddress].add(_tokens);\n\n    emit TokensMinted(msg.sender, depositAddress, _tokens);\n  }\n  \n  /**\n   * @notice Called when tokens are bought in token sale\n   * @param _beneficiary Address on which tokens are deposited\n   * @param _tokens Amount of tokens to be created\n   */\n  function sendBoughtTokens(address _beneficiary, uint256 _tokens) external {\n    require(locked);\n    require(contractManager.authorize(contractName, msg.sender));\n    require(_beneficiary != address(0));\n    require(_tokens != 0);\n\n    totalSupply_ = totalSupply_.add(_tokens);\n    balances[depositAddress] = balances[depositAddress].add(_tokens);\n\n    emit TokensMinted(msg.sender, depositAddress, _tokens);\n\n    _transfer(depositAddress, _beneficiary, _tokens);\n  }\n\n  /**\n   * @notice Called when deposit address needs to change\n   * @param _depositAddress Address on which minted tokens are deposited\n   */\n  function changeDepositAddress(address _depositAddress) external {\n    require(contractManager.authorize(contractName, msg.sender));\n    require(_depositAddress != address(0));\n    require(_depositAddress != depositAddress);\n\n    address oldDepositAddress = depositAddress;\n    depositAddress = _depositAddress;\n\n    emit DepositAddressChanged(oldDepositAddress, _depositAddress);\n  }\n}",
  "sourcePath": "/home/shinxs/Projects/fida/contracts/token/MintableToken.sol",
  "compiler": {
    "name": "solc",
    "version": "0.4.23+commit.124ca40d.Emscripten.clang"
  },
  "schemaVersion": "2.0.0",
  "updatedAt": "2018-05-23T07:13:44.811Z"
}