{
  "contractName": "PriceChecker",
  "abi": [
    {
      "constant": true,
      "inputs": [],
      "name": "fidaPerEther",
      "outputs": [
        {
          "name": "",
          "type": "uint256"
        }
      ],
      "payable": false,
      "stateMutability": "view",
      "type": "function"
    },
    {
      "constant": true,
      "inputs": [],
      "name": "ETHEUR",
      "outputs": [
        {
          "name": "",
          "type": "string"
        }
      ],
      "payable": false,
      "stateMutability": "view",
      "type": "function"
    },
    {
      "constant": true,
      "inputs": [
        {
          "name": "",
          "type": "bytes32"
        }
      ],
      "name": "ids",
      "outputs": [
        {
          "name": "",
          "type": "bool"
        }
      ],
      "payable": false,
      "stateMutability": "view",
      "type": "function"
    },
    {
      "inputs": [
        {
          "name": "_priceCheckerAddress",
          "type": "address"
        }
      ],
      "payable": true,
      "stateMutability": "payable",
      "type": "constructor"
    },
    {
      "anonymous": false,
      "inputs": [
        {
          "indexed": false,
          "name": "_id",
          "type": "bytes32"
        },
        {
          "indexed": false,
          "name": "_price",
          "type": "string"
        }
      ],
      "name": "PriceUpdated",
      "type": "event"
    },
    {
      "anonymous": false,
      "inputs": [
        {
          "indexed": false,
          "name": "_id",
          "type": "bytes32"
        },
        {
          "indexed": false,
          "name": "_fees",
          "type": "uint256"
        }
      ],
      "name": "NewOraclizeQuery",
      "type": "event"
    },
    {
      "anonymous": false,
      "inputs": [
        {
          "indexed": false,
          "name": "_description",
          "type": "string"
        },
        {
          "indexed": false,
          "name": "_fees",
          "type": "uint256"
        }
      ],
      "name": "OraclizeQueryNotSend",
      "type": "event"
    },
    {
      "constant": false,
      "inputs": [],
      "name": "updatePrice",
      "outputs": [],
      "payable": true,
      "stateMutability": "payable",
      "type": "function"
    },
    {
      "constant": false,
      "inputs": [
        {
          "name": "_id",
          "type": "bytes32"
        },
        {
          "name": "_result",
          "type": "string"
        }
      ],
      "name": "__callback",
      "outputs": [],
      "payable": false,
      "stateMutability": "nonpayable",
      "type": "function"
    },
    {
      "constant": false,
      "inputs": [
        {
          "name": "myid",
          "type": "bytes32"
        },
        {
          "name": "result",
          "type": "string"
        },
        {
          "name": "proof",
          "type": "bytes"
        }
      ],
      "name": "__callback",
      "outputs": [],
      "payable": false,
      "stateMutability": "nonpayable",
      "type": "function"
    },
    {
      "constant": false,
      "inputs": [
        {
          "name": "_gasLimit",
          "type": "uint256"
        }
      ],
      "name": "changeGasLimit",
      "outputs": [],
      "payable": false,
      "stateMutability": "nonpayable",
      "type": "function"
    }
  ],
  "bytecode": "0x60c0604052600960808190527f3537312e3835303030000000000000000000000000000000000000000000000060a090815262000040916006919062001144565b5063036892e860075561e4e660095560405160208062002940833981016040525160058054600160a060020a031916600160a060020a0383161790556200008f64010000000062000096810204565b50620011e6565b600030600160a060020a031631620000f56040805190810160405280600381526020017f55524c00000000000000000000000000000000000000000000000000000000008152506009546200037d640100000000026401000000009004565b111562000203577f3cc796735354d9bb4604eeb9a6d0323a88e66a6c6fd67a5b2b49ea5846b1b7476200016c6040805190810160405280600381526020017f55524c000000000000000000000000000000000000000000000000000000000081525062000641640100000000026401000000009004565b604080516020810192909252808252604b828201527f4f7261636c697a6520717565727920776173204e4f542073656e742c20706c6560608301527f6173652061646420736f6d652045544820746f20636f76657220666f7220746860808301527f652071756572792066656500000000000000000000000000000000000000000060a0830152519081900360c00190a16200037a565b620002d86040805190810160405280600381526020017f55524c0000000000000000000000000000000000000000000000000000000000815250608060405190810160405280604d81526020017f6a736f6e2868747470733a2f2f6170692e6b72616b656e2e636f6d2f302f707581526020017f626c69632f5469636b65723f706169723d455448455552292e726573756c742e81526020017f584554485a4555522e615b305d00000000000000000000000000000000000000815250600954620008fc640100000000026401000000009004565b600081815260086020908152604091829020805460ff191660011790558151808301909252600382527f55524c0000000000000000000000000000000000000000000000000000000000908201529091507fb6826b9da99334b1afae1d80ff40054e6e5e2605f0d9626cf120f65c2f5091c9908290620003619064010000000062000641810204565b6040805192835260208301919091528051918290030190a15b50565b60008054600160a060020a03161580620003b45750600054620003b290600160a060020a031664010000000062000d5f810204565b155b15620003d157620003cf600064010000000062000d63810204565b505b6000809054906101000a9004600160a060020a0316600160a060020a03166338cc48316040518163ffffffff167c0100000000000000000000000000000000000000000000000000000000028152600401602060405180830381600087803b1580156200043d57600080fd5b505af115801562000452573d6000803e3d6000fd5b505050506040513d60208110156200046957600080fd5b5051600154600160a060020a039081169116146200053b576000809054906101000a9004600160a060020a0316600160a060020a03166338cc48316040518163ffffffff167c0100000000000000000000000000000000000000000000000000000000028152600401602060405180830381600087803b158015620004ed57600080fd5b505af115801562000502573d6000803e3d6000fd5b505050506040513d60208110156200051957600080fd5b505160018054600160a060020a031916600160a060020a039092169190911790555b600154604080517f2ef3accc0000000000000000000000000000000000000000000000000000000081526024810185905260048101918252855160448201528551600160a060020a0390931692632ef3accc9287928792829160640190602086019080838360005b83811015620005bd578181015183820152602001620005a3565b50505050905090810190601f168015620005eb5780820380516001836020036101000a031916815260200191505b509350505050602060405180830381600087803b1580156200060c57600080fd5b505af115801562000621573d6000803e3d6000fd5b505050506040513d60208110156200063857600080fd5b50519392505050565b60008054600160a060020a031615806200067857506000546200067690600160a060020a031664010000000062000d5f810204565b155b15620006955762000693600064010000000062000d63810204565b505b6000809054906101000a9004600160a060020a0316600160a060020a03166338cc48316040518163ffffffff167c0100000000000000000000000000000000000000000000000000000000028152600401602060405180830381600087803b1580156200070157600080fd5b505af115801562000716573d6000803e3d6000fd5b505050506040513d60208110156200072d57600080fd5b5051600154600160a060020a03908116911614620007ff576000809054906101000a9004600160a060020a0316600160a060020a03166338cc48316040518163ffffffff167c0100000000000000000000000000000000000000000000000000000000028152600401602060405180830381600087803b158015620007b157600080fd5b505af1158015620007c6573d6000803e3d6000fd5b505050506040513d6020811015620007dd57600080fd5b505160018054600160a060020a031916600160a060020a039092169190911790555b6001546040517f524f3889000000000000000000000000000000000000000000000000000000008152602060048201818152855160248401528551600160a060020a039094169363524f388993879383926044909201919085019080838360005b838110156200087a57818101518382015260200162000860565b50505050905090810190601f168015620008a85780820380516001836020036101000a031916815260200191505b5092505050602060405180830381600087803b158015620008c857600080fd5b505af1158015620008dd573d6000803e3d6000fd5b505050506040513d6020811015620008f457600080fd5b505192915050565b600080548190600160a060020a031615806200093557506000546200093390600160a060020a031664010000000062000d5f810204565b155b15620009525762000950600064010000000062000d63810204565b505b6000809054906101000a9004600160a060020a0316600160a060020a03166338cc48316040518163ffffffff167c0100000000000000000000000000000000000000000000000000000000028152600401602060405180830381600087803b158015620009be57600080fd5b505af1158015620009d3573d6000803e3d6000fd5b505050506040513d6020811015620009ea57600080fd5b5051600154600160a060020a0390811691161462000abc576000809054906101000a9004600160a060020a0316600160a060020a03166338cc48316040518163ffffffff167c0100000000000000000000000000000000000000000000000000000000028152600401602060405180830381600087803b15801562000a6e57600080fd5b505af115801562000a83573d6000803e3d6000fd5b505050506040513d602081101562000a9a57600080fd5b505160018054600160a060020a031916600160a060020a039092169190911790555b600154604080517f2ef3accc0000000000000000000000000000000000000000000000000000000081526024810186905260048101918252875160448201528751600160a060020a0390931692632ef3accc9289928892829160640190602086019080838360005b8381101562000b3e57818101518382015260200162000b24565b50505050905090810190601f16801562000b6c5780820380516001836020036101000a031916815260200191505b509350505050602060405180830381600087803b15801562000b8d57600080fd5b505af115801562000ba2573d6000803e3d6000fd5b505050506040513d602081101562000bb957600080fd5b50519050670de0b6b3a76400003a84020181111562000bdc576000915062000d57565b6001546040517fc51be90f00000000000000000000000000000000000000000000000000000000815260006004820181815260648301879052608060248401908152895160848501528951600160a060020a039095169463c51be90f948794938c938c938c93604481019160a49091019060208801908083838c5b8381101562000c7157818101518382015260200162000c57565b50505050905090810190601f16801562000c9f5780820380516001836020036101000a031916815260200191505b50838103825285518152855160209182019187019080838360005b8381101562000cd457818101518382015260200162000cba565b50505050905090810190601f16801562000d025780820380516001836020036101000a031916815260200191505b5096505050505050506020604051808303818588803b15801562000d2557600080fd5b505af115801562000d3a573d6000803e3d6000fd5b50505050506040513d602081101562000d5257600080fd5b505191505b509392505050565b3b90565b600062000d7864010000000062000d7e810204565b92915050565b60008062000da9731d3b2638a7cc9f2cb3d298a3da7a90b67e5506ed64010000000062000d5f810204565b111562000e275760008054600160a060020a031916731d3b2638a7cc9f2cb3d298a3da7a90b67e5506ed17905560408051808201909152600b81527f6574685f6d61696e6e6574000000000000000000000000000000000000000000602082015262000e1e906401000000006200112b810204565b50600162001128565b600062000e5173c03a2615d5efaf5f49f60b7bb6583eaec212fdf164010000000062000d5f810204565b111562000ec65760008054600160a060020a03191673c03a2615d5efaf5f49f60b7bb6583eaec212fdf117905560408051808201909152600c81527f6574685f726f707374656e330000000000000000000000000000000000000000602082015262000e1e906401000000006200112b810204565b600062000ef073b7a07bcf2ba2f2703b24c0691b5278999c59ac7e64010000000062000d5f810204565b111562000f655760008054600160a060020a03191673b7a07bcf2ba2f2703b24c0691b5278999c59ac7e17905560408051808201909152600981527f6574685f6b6f76616e0000000000000000000000000000000000000000000000602082015262000e1e906401000000006200112b810204565b600062000f8f73146500cfd35b22e4a392fe0adc06de1a1368ed4864010000000062000d5f810204565b1115620010045760008054600160a060020a03191673146500cfd35b22e4a392fe0adc06de1a1368ed4817905560408051808201909152600b81527f6574685f72696e6b656279000000000000000000000000000000000000000000602082015262000e1e906401000000006200112b810204565b60006200102e736f485c8bf6fc43ea212e93bbf8ce046c7f1cb47564010000000062000d5f810204565b111562001064575060008054600160a060020a031916736f485c8bf6fc43ea212e93bbf8ce046c7f1cb475179055600162001128565b60006200108e7320e12a1f859b3feae5fb2a0a32c18f5a65555bbf64010000000062000d5f810204565b1115620010c4575060008054600160a060020a0319167320e12a1f859b3feae5fb2a0a32c18f5a65555bbf179055600162001128565b6000620010ee7351efaf4c8b3c9afbd5ab9f4bbc82784ab6ef8faa64010000000062000d5f810204565b111562001124575060008054600160a060020a0319167351efaf4c8b3c9afbd5ab9f4bbc82784ab6ef8faa179055600162001128565b5060005b90565b80516200114090600290602084019062001144565b5050565b828054600181600116156101000203166002900490600052602060002090601f016020900481019282601f106200118757805160ff1916838001178555620011b7565b82800160010185558215620011b7579182015b82811115620011b75782518255916020019190600101906200119a565b50620011c5929150620011c9565b5090565b6200112891905b80821115620011c55760008155600101620011d0565b61174a80620011f66000396000f3006080604052600436106100695763ffffffff60e060020a60003504166327dc297e811461006e57806338bbfa50146100ce578063673a7e281461016a578063957b52fb14610172578063a3d646fe14610199578063baf539ee14610223578063cf7b4a091461023b575b600080fd5b34801561007a57600080fd5b5060408051602060046024803582810135601f81018590048502860185019096528585526100cc9583359536956044949193909101919081908401838280828437509497506102679650505050505050565b005b3480156100da57600080fd5b5060408051602060046024803582810135601f81018590048502860185019096528585526100cc95833595369560449491939091019190819084018382808284375050604080516020601f89358b018035918201839004830284018301909452808352979a9998810197919650918201945092508291508401838280828437509497506103779650505050505050565b6100cc61037c565b34801561017e57600080fd5b506101876103a1565b60408051918252519081900360200190f35b3480156101a557600080fd5b506101ae6103a7565b6040805160208082528351818301528351919283929083019185019080838360005b838110156101e85781810151838201526020016101d0565b50505050905090810190601f1680156102155780820380516001836020036101000a031916815260200191505b509250505060405180910390f35b34801561022f57600080fd5b506100cc600435610435565b34801561024757600080fd5b50610253600435610455565b604080519115158252519081900360200190f35b61026f61046a565b600160a060020a031633600160a060020a031614151561028e57600080fd5b60008281526008602052604090205460ff1615156001146102ae57600080fd5b80516102c1906006906020840190611686565b506102cd81600561065c565b60075560408051838152602080820183815284519383019390935283517f0ca598019410e2cf468f2525ac5844c86b6c9273e0f125dbe7e550ad5e7064de93869386939092606084019185019080838360005b83811015610338578181015183820152602001610320565b50505050905090810190601f1680156103655780820380516001836020036101000a031916815260200191505b50935050505060405180910390a15050565b505050565b60055433600160a060020a0390811691161461039757600080fd5b61039f610816565b565b60075481565b6006805460408051602060026001851615610100026000190190941693909304601f8101849004840282018401909252818152929183018282801561042d5780601f106104025761010080835404028352916020019161042d565b820191906000526020600020905b81548152906001019060200180831161041057829003601f168201915b505050505081565b60055433600160a060020a0390811691161461045057600080fd5b600955565b60086020526000908152604090205460ff1681565b60008054600160a060020a03161580610495575060005461049390600160a060020a0316610a61565b155b156104a6576104a46000610a65565b505b6000809054906101000a9004600160a060020a0316600160a060020a03166338cc48316040518163ffffffff1660e060020a028152600401602060405180830381600087803b1580156104f857600080fd5b505af115801561050c573d6000803e3d6000fd5b505050506040513d602081101561052257600080fd5b5051600154600160a060020a039081169116146105d7576000809054906101000a9004600160a060020a0316600160a060020a03166338cc48316040518163ffffffff1660e060020a028152600401602060405180830381600087803b15801561058b57600080fd5b505af115801561059f573d6000803e3d6000fd5b505050506040513d60208110156105b557600080fd5b505160018054600160a060020a031916600160a060020a039092169190911790555b600160009054906101000a9004600160a060020a0316600160a060020a031663c281d19e6040518163ffffffff1660e060020a028152600401602060405180830381600087803b15801561062a57600080fd5b505af115801561063e573d6000803e3d6000fd5b505050506040513d602081101561065457600080fd5b505190505b90565b6000828180805b83518110156107f95783517f30000000000000000000000000000000000000000000000000000000000000009085908390811061069c57fe5b90602001015160f860020a900460f860020a027effffffffffffffffffffffffffffffffffffffffffffffffffffffffffffff191610158015610742575083517f39000000000000000000000000000000000000000000000000000000000000009085908390811061070a57fe5b90602001015160f860020a900460f860020a027effffffffffffffffffffffffffffffffffffffffffffffffffffffffffffff191611155b1561079b57811561076157851515610759576107f9565b600019909501945b600a830292506030848281518110151561077757fe5b90602001015160f860020a900460f860020a0260f860020a900403830192506107f1565b83818151811015156107a957fe5b90602001015160f860020a900460f860020a027effffffffffffffffffffffffffffffffffffffffffffffffffffffffffffff1916602e60f860020a0214156107f157600191505b600101610663565b600086111561080b5785600a0a830292505b509095945050505050565b600030600160a060020a03163161084d60408051908101604052806003815260200160ea60020a6215549302815250600954610a75565b1115610931577f3cc796735354d9bb4604eeb9a6d0323a88e66a6c6fd67a5b2b49ea5846b1b74761089b60408051908101604052806003815260200160ea60020a6215549302815250610ce2565b604080516020810192909252808252604b828201527f4f7261636c697a6520717565727920776173204e4f542073656e742c20706c6560608301527f6173652061646420736f6d652045544820746f20636f76657220666f7220746860808301527f652071756572792066656500000000000000000000000000000000000000000060a0830152519081900360c00190a1610a5e565b6109de60408051908101604052806003815260200160ea60020a6215549302815250608060405190810160405280604d81526020017f6a736f6e2868747470733a2f2f6170692e6b72616b656e2e636f6d2f302f707581526020017f626c69632f5469636b65723f706169723d455448455552292e726573756c742e81526020017f584554485a4555522e615b305d00000000000000000000000000000000000000815250600954610f46565b600081815260086020908152604091829020805460ff1916600117905581518083019092526003825260ea60020a6215549302908201529091507fb6826b9da99334b1afae1d80ff40054e6e5e2605f0d9626cf120f65c2f5091c9908290610a4590610ce2565b6040805192835260208301919091528051918290030190a15b50565b3b90565b6000610a6f611347565b92915050565b60008054600160a060020a03161580610aa05750600054610a9e90600160a060020a0316610a61565b155b15610ab157610aaf6000610a65565b505b6000809054906101000a9004600160a060020a0316600160a060020a03166338cc48316040518163ffffffff1660e060020a028152600401602060405180830381600087803b158015610b0357600080fd5b505af1158015610b17573d6000803e3d6000fd5b505050506040513d6020811015610b2d57600080fd5b5051600154600160a060020a03908116911614610be2576000809054906101000a9004600160a060020a0316600160a060020a03166338cc48316040518163ffffffff1660e060020a028152600401602060405180830381600087803b158015610b9657600080fd5b505af1158015610baa573d6000803e3d6000fd5b505050506040513d6020811015610bc057600080fd5b505160018054600160a060020a031916600160a060020a039092169190911790555b600154604080517f2ef3accc0000000000000000000000000000000000000000000000000000000081526024810185905260048101918252855160448201528551600160a060020a0390931692632ef3accc9287928792829160640190602086019080838360005b83811015610c62578181015183820152602001610c4a565b50505050905090810190601f168015610c8f5780820380516001836020036101000a031916815260200191505b509350505050602060405180830381600087803b158015610caf57600080fd5b505af1158015610cc3573d6000803e3d6000fd5b505050506040513d6020811015610cd957600080fd5b50519392505050565b60008054600160a060020a03161580610d0d5750600054610d0b90600160a060020a0316610a61565b155b15610d1e57610d1c6000610a65565b505b6000809054906101000a9004600160a060020a0316600160a060020a03166338cc48316040518163ffffffff1660e060020a028152600401602060405180830381600087803b158015610d7057600080fd5b505af1158015610d84573d6000803e3d6000fd5b505050506040513d6020811015610d9a57600080fd5b5051600154600160a060020a03908116911614610e4f576000809054906101000a9004600160a060020a0316600160a060020a03166338cc48316040518163ffffffff1660e060020a028152600401602060405180830381600087803b158015610e0357600080fd5b505af1158015610e17573d6000803e3d6000fd5b505050506040513d6020811015610e2d57600080fd5b505160018054600160a060020a031916600160a060020a039092169190911790555b6001546040517f524f3889000000000000000000000000000000000000000000000000000000008152602060048201818152855160248401528551600160a060020a039094169363524f388993879383926044909201919085019080838360005b83811015610ec8578181015183820152602001610eb0565b50505050905090810190601f168015610ef55780820380516001836020036101000a031916815260200191505b5092505050602060405180830381600087803b158015610f1457600080fd5b505af1158015610f28573d6000803e3d6000fd5b505050506040513d6020811015610f3e57600080fd5b505192915050565b600080548190600160a060020a03161580610f735750600054610f7190600160a060020a0316610a61565b155b15610f8457610f826000610a65565b505b6000809054906101000a9004600160a060020a0316600160a060020a03166338cc48316040518163ffffffff1660e060020a028152600401602060405180830381600087803b158015610fd657600080fd5b505af1158015610fea573d6000803e3d6000fd5b505050506040513d602081101561100057600080fd5b5051600154600160a060020a039081169116146110b5576000809054906101000a9004600160a060020a0316600160a060020a03166338cc48316040518163ffffffff1660e060020a028152600401602060405180830381600087803b15801561106957600080fd5b505af115801561107d573d6000803e3d6000fd5b505050506040513d602081101561109357600080fd5b505160018054600160a060020a031916600160a060020a039092169190911790555b600154604080517f2ef3accc0000000000000000000000000000000000000000000000000000000081526024810186905260048101918252875160448201528751600160a060020a0390931692632ef3accc9289928892829160640190602086019080838360005b8381101561113557818101518382015260200161111d565b50505050905090810190601f1680156111625780820380516001836020036101000a031916815260200191505b509350505050602060405180830381600087803b15801561118257600080fd5b505af1158015611196573d6000803e3d6000fd5b505050506040513d60208110156111ac57600080fd5b50519050670de0b6b3a76400003a8402018111156111cd576000915061133f565b6001546040517fc51be90f00000000000000000000000000000000000000000000000000000000815260006004820181815260648301879052608060248401908152895160848501528951600160a060020a039095169463c51be90f948794938c938c938c93604481019160a49091019060208801908083838c5b83811015611260578181015183820152602001611248565b50505050905090810190601f16801561128d5780820380516001836020036101000a031916815260200191505b50838103825285518152855160209182019187019080838360005b838110156112c05781810151838201526020016112a8565b50505050905090810190601f1680156112ed5780820380516001836020036101000a031916815260200191505b5096505050505050506020604051808303818588803b15801561130f57600080fd5b505af1158015611323573d6000803e3d6000fd5b50505050506040513d602081101561133a57600080fd5b505191505b509392505050565b600080611367731d3b2638a7cc9f2cb3d298a3da7a90b67e5506ed610a61565b11156113d85760008054600160a060020a031916731d3b2638a7cc9f2cb3d298a3da7a90b67e5506ed17905560408051808201909152600b81527f6574685f6d61696e6e657400000000000000000000000000000000000000000060208201526113d09061166f565b506001610659565b60006113f773c03a2615d5efaf5f49f60b7bb6583eaec212fdf1610a61565b11156114605760008054600160a060020a03191673c03a2615d5efaf5f49f60b7bb6583eaec212fdf117905560408051808201909152600c81527f6574685f726f707374656e33000000000000000000000000000000000000000060208201526113d09061166f565b600061147f73b7a07bcf2ba2f2703b24c0691b5278999c59ac7e610a61565b11156114e85760008054600160a060020a03191673b7a07bcf2ba2f2703b24c0691b5278999c59ac7e17905560408051808201909152600981527f6574685f6b6f76616e000000000000000000000000000000000000000000000060208201526113d09061166f565b600061150773146500cfd35b22e4a392fe0adc06de1a1368ed48610a61565b11156115705760008054600160a060020a03191673146500cfd35b22e4a392fe0adc06de1a1368ed4817905560408051808201909152600b81527f6574685f72696e6b65627900000000000000000000000000000000000000000060208201526113d09061166f565b600061158f736f485c8bf6fc43ea212e93bbf8ce046c7f1cb475610a61565b11156115c3575060008054600160a060020a031916736f485c8bf6fc43ea212e93bbf8ce046c7f1cb4751790556001610659565b60006115e27320e12a1f859b3feae5fb2a0a32c18f5a65555bbf610a61565b1115611616575060008054600160a060020a0319167320e12a1f859b3feae5fb2a0a32c18f5a65555bbf1790556001610659565b60006116357351efaf4c8b3c9afbd5ab9f4bbc82784ab6ef8faa610a61565b1115611669575060008054600160a060020a0319167351efaf4c8b3c9afbd5ab9f4bbc82784ab6ef8faa1790556001610659565b50600090565b8051611682906002906020840190611686565b5050565b828054600181600116156101000203166002900490600052602060002090601f016020900481019282601f106116c757805160ff19168380011785556116f4565b828001600101855582156116f4579182015b828111156116f45782518255916020019190600101906116d9565b50611700929150611704565b5090565b61065991905b80821115611700576000815560010161170a5600a165627a7a723058200d1f36d8df1c9ebac7f8eb5027058cd201df1cc1f4a86f0664a643f4803e8d100029",
  "source": "pragma solidity ^0.4.23;\n\nimport \"./oraclizeAPI_0.5.sol\";\n\n/**\n * @title Price Checker\n * @author Bram Hoven\n * @notice Retrieves the current Ether price in euros and converts it to the amount of fida per ether\n */\ncontract PriceChecker is usingOraclize {\n\n  // The address that is allowed to call the `updatePrice()` function\n  address priceCheckerAddress;\n  // Current price of ethereum in euros\n  string public ETHEUR = \"571.85000\";\n  // Amount of fida per ether\n  uint256 public fidaPerEther = 57185000;\n  // Latest callback id\n  mapping(bytes32 => bool) public ids;\n  // Gaslimit to be used by oraclize\n  uint256 gasLimit = 58598;\n\n  /**\n   * @notice Triggered when price is updated\n   * @param _id Oraclize query id\n   * @param _price Price of 1 ether in euro's\n   */\n  event PriceUpdated(bytes32 _id, string _price);\n  /**\n   * @notice Triggered when updatePrice() is called\n   * @param _id Oraclize query id\n   * @param _fees The price of the oraclize call in ether\n   */\n  event NewOraclizeQuery(bytes32 _id, uint256 _fees);\n\n  /**\n   * @notice Triggered when fee is lower than this.balance\n   * @param _description String with message\n   * @param _fees The amount of wei it cost to perform this query\n   */\n  event OraclizeQueryNotSend(string _description, uint256 _fees);\n\n  /**\n   * @notice Contructor for initializing the pricechecker\n   * @param _priceCheckerAddress Address which is allow to call `updatePrice()`\n   */\n  constructor(address _priceCheckerAddress) public payable {\n    priceCheckerAddress = _priceCheckerAddress;\n\n    _updatePrice();\n  }\n\n  /**\n   * @notice Function for updating the price stored in this contract\n   */\n  function updatePrice() public payable {\n    require(msg.sender == priceCheckerAddress);\n\n    _updatePrice();\n  }\n\n  function _updatePrice() private {\n    if (oraclize_getPrice(\"URL\", gasLimit) > address(this).balance) {\n      emit OraclizeQueryNotSend(\"Oraclize query was NOT sent, please add some ETH to cover for the query fee\", oraclize_getPrice(\"URL\"));\n    } else {\n      bytes32 id = oraclize_query(\"URL\", \"json(https://api.kraken.com/0/public/Ticker?pair=ETHEUR).result.XETHZEUR.a[0]\", gasLimit);\n      ids[id] = true;\n      emit NewOraclizeQuery(id, oraclize_getPrice(\"URL\"));\n    }\n  }\n\n  /**\n   * @notice Oraclize callback function\n   * @param _id The id of the query\n   * @param _result Result of the query\n   */\n  function __callback(bytes32 _id, string _result) public {\n    require(msg.sender == oraclize_cbAddress());\n    require(ids[_id] == true);\n\n    ETHEUR = _result;\n    // Save price of ether as an uint without the 5 decimals (350.00000 * 10**5 = 35000000)\n    fidaPerEther = parseInt(_result, 5);\n\n    emit PriceUpdated(_id, _result);\n  }\n\n  /**\n   * @notice Change gasLimit\n   */\n  function changeGasLimit(uint256 _gasLimit) public {\n    require(msg.sender == priceCheckerAddress);\n\n    gasLimit = _gasLimit;\n  }\n}\n",
  "sourcePath": "/home/shinxs/Projects/fida/contracts/PriceChecker.sol",
  "compiler": {
    "name": "solc",
    "version": "0.4.23+commit.124ca40d.Emscripten.clang"
  },
  "schemaVersion": "2.0.0",
  "updatedAt": "2018-05-23T08:16:07.892Z"
}